{
  "contractName": "NFT",
  "abi": [
    {
      "inputs": [],
      "stateMutability": "nonpayable",
      "type": "constructor"
    },
    {
      "anonymous": false,
      "inputs": [
        {
          "indexed": true,
          "internalType": "address",
          "name": "owner",
          "type": "address"
        },
        {
          "indexed": true,
          "internalType": "address",
          "name": "approved",
          "type": "address"
        },
        {
          "indexed": true,
          "internalType": "uint256",
          "name": "tokenId",
          "type": "uint256"
        }
      ],
      "name": "Approval",
      "type": "event"
    },
    {
      "anonymous": false,
      "inputs": [
        {
          "indexed": true,
          "internalType": "address",
          "name": "owner",
          "type": "address"
        },
        {
          "indexed": true,
          "internalType": "address",
          "name": "operator",
          "type": "address"
        },
        {
          "indexed": false,
          "internalType": "bool",
          "name": "approved",
          "type": "bool"
        }
      ],
      "name": "ApprovalForAll",
      "type": "event"
    },
    {
      "anonymous": false,
      "inputs": [
        {
          "indexed": false,
          "internalType": "uint256",
          "name": "tokenId",
          "type": "uint256"
        },
        {
          "indexed": false,
          "internalType": "string",
          "name": "tokenURI",
          "type": "string"
        },
        {
          "indexed": false,
          "internalType": "address",
          "name": "owner",
          "type": "address"
        }
      ],
      "name": "TokenCreated",
      "type": "event"
    },
    {
      "anonymous": false,
      "inputs": [
        {
          "indexed": true,
          "internalType": "address",
          "name": "from",
          "type": "address"
        },
        {
          "indexed": true,
          "internalType": "address",
          "name": "to",
          "type": "address"
        },
        {
          "indexed": true,
          "internalType": "uint256",
          "name": "tokenId",
          "type": "uint256"
        }
      ],
      "name": "Transfer",
      "type": "event"
    },
    {
      "inputs": [
        {
          "internalType": "address",
          "name": "to",
          "type": "address"
        },
        {
          "internalType": "uint256",
          "name": "tokenId",
          "type": "uint256"
        }
      ],
      "name": "approve",
      "outputs": [],
      "stateMutability": "nonpayable",
      "type": "function"
    },
    {
      "inputs": [
        {
          "internalType": "address",
          "name": "owner",
          "type": "address"
        }
      ],
      "name": "balanceOf",
      "outputs": [
        {
          "internalType": "uint256",
          "name": "",
          "type": "uint256"
        }
      ],
      "stateMutability": "view",
      "type": "function",
      "constant": true
    },
    {
      "inputs": [
        {
          "internalType": "uint256",
          "name": "tokenId",
          "type": "uint256"
        }
      ],
      "name": "getApproved",
      "outputs": [
        {
          "internalType": "address",
          "name": "",
          "type": "address"
        }
      ],
      "stateMutability": "view",
      "type": "function",
      "constant": true
    },
    {
      "inputs": [
        {
          "internalType": "address",
          "name": "owner",
          "type": "address"
        },
        {
          "internalType": "address",
          "name": "operator",
          "type": "address"
        }
      ],
      "name": "isApprovedForAll",
      "outputs": [
        {
          "internalType": "bool",
          "name": "",
          "type": "bool"
        }
      ],
      "stateMutability": "view",
      "type": "function",
      "constant": true
    },
    {
      "inputs": [],
      "name": "name",
      "outputs": [
        {
          "internalType": "string",
          "name": "",
          "type": "string"
        }
      ],
      "stateMutability": "view",
      "type": "function",
      "constant": true
    },
    {
      "inputs": [
        {
          "internalType": "uint256",
          "name": "tokenId",
          "type": "uint256"
        }
      ],
      "name": "ownerOf",
      "outputs": [
        {
          "internalType": "address",
          "name": "",
          "type": "address"
        }
      ],
      "stateMutability": "view",
      "type": "function",
      "constant": true
    },
    {
      "inputs": [
        {
          "internalType": "address",
          "name": "from",
          "type": "address"
        },
        {
          "internalType": "address",
          "name": "to",
          "type": "address"
        },
        {
          "internalType": "uint256",
          "name": "tokenId",
          "type": "uint256"
        }
      ],
      "name": "safeTransferFrom",
      "outputs": [],
      "stateMutability": "nonpayable",
      "type": "function"
    },
    {
      "inputs": [
        {
          "internalType": "address",
          "name": "from",
          "type": "address"
        },
        {
          "internalType": "address",
          "name": "to",
          "type": "address"
        },
        {
          "internalType": "uint256",
          "name": "tokenId",
          "type": "uint256"
        },
        {
          "internalType": "bytes",
          "name": "_data",
          "type": "bytes"
        }
      ],
      "name": "safeTransferFrom",
      "outputs": [],
      "stateMutability": "nonpayable",
      "type": "function"
    },
    {
      "inputs": [
        {
          "internalType": "address",
          "name": "operator",
          "type": "address"
        },
        {
          "internalType": "bool",
          "name": "approved",
          "type": "bool"
        }
      ],
      "name": "setApprovalForAll",
      "outputs": [],
      "stateMutability": "nonpayable",
      "type": "function"
    },
    {
      "inputs": [
        {
          "internalType": "bytes4",
          "name": "interfaceId",
          "type": "bytes4"
        }
      ],
      "name": "supportsInterface",
      "outputs": [
        {
          "internalType": "bool",
          "name": "",
          "type": "bool"
        }
      ],
      "stateMutability": "view",
      "type": "function",
      "constant": true
    },
    {
      "inputs": [],
      "name": "symbol",
      "outputs": [
        {
          "internalType": "string",
          "name": "",
          "type": "string"
        }
      ],
      "stateMutability": "view",
      "type": "function",
      "constant": true
    },
    {
      "inputs": [
        {
          "internalType": "uint256",
          "name": "tokenId",
          "type": "uint256"
        }
      ],
      "name": "tokenURI",
      "outputs": [
        {
          "internalType": "string",
          "name": "",
          "type": "string"
        }
      ],
      "stateMutability": "view",
      "type": "function",
      "constant": true
    },
    {
      "inputs": [
        {
          "internalType": "address",
          "name": "from",
          "type": "address"
        },
        {
          "internalType": "address",
          "name": "to",
          "type": "address"
        },
        {
          "internalType": "uint256",
          "name": "tokenId",
          "type": "uint256"
        }
      ],
      "name": "transferFrom",
      "outputs": [],
      "stateMutability": "nonpayable",
      "type": "function"
    },
    {
      "inputs": [
        {
          "internalType": "string",
          "name": "_tokenURI",
          "type": "string"
        }
      ],
      "name": "createToken",
      "outputs": [
        {
          "internalType": "uint256",
          "name": "",
          "type": "uint256"
        }
      ],
      "stateMutability": "nonpayable",
      "type": "function"
    },
    {
      "inputs": [
        {
          "internalType": "address",
          "name": "_owner",
          "type": "address"
        }
      ],
      "name": "fetchOwnedToken",
      "outputs": [
        {
          "internalType": "uint256[]",
          "name": "",
          "type": "uint256[]"
        }
      ],
      "stateMutability": "view",
      "type": "function",
      "constant": true
    }
  ],
  "bytecode": "0x60806040523480156200001157600080fd5b506040518060400160405280600781526020017f415254204e4654000000000000000000000000000000000000000000000000008152506040518060400160405280600381526020017f414e540000000000000000000000000000000000000000000000000000000000815250816000908051906020019062000096929190620000b8565b508060019080519060200190620000af929190620000b8565b505050620001cd565b828054620000c69062000168565b90600052602060002090601f016020900481019282620000ea576000855562000136565b82601f106200010557805160ff191683800117855562000136565b8280016001018555821562000136579182015b828111156200013557825182559160200191906001019062000118565b5b50905062000145919062000149565b5090565b5b80821115620001645760008160009055506001016200014a565b5090565b600060028204905060018216806200018157607f821691505b602082108114156200019857620001976200019e565b5b50919050565b7f4e487b7100000000000000000000000000000000000000000000000000000000600052602260045260246000fd5b612f2780620001dd6000396000f3fe608060405234801561001057600080fd5b50600436106100f55760003560e01c80636352211e11610097578063a22cb46511610066578063a22cb465146102aa578063b88d4fde146102c6578063c87b56dd146102e2578063e985e9c514610312576100f5565b80636352211e146101fc57806370a082311461022c5780638426d4f91461025c57806395d89b411461028c576100f5565b8063095ea7b3116100d3578063095ea7b31461017857806323b872dd1461019457806342842e0e146101b057806345576f94146101cc576100f5565b806301ffc9a7146100fa57806306fdde031461012a578063081812fc14610148575b600080fd5b610114600480360381019061010f9190611d64565b610342565b604051610121919061227d565b60405180910390f35b610132610424565b60405161013f9190612298565b60405180910390f35b610162600480360381019061015d9190611e07565b6104b6565b60405161016f91906121f4565b60405180910390f35b610192600480360381019061018d9190611d24565b61053b565b005b6101ae60048036038101906101a99190611c0e565b610653565b005b6101ca60048036038101906101c59190611c0e565b6106b3565b005b6101e660048036038101906101e19190611dbe565b6106d3565b6040516101f391906124ba565b60405180910390f35b61021660048036038101906102119190611e07565b61076b565b60405161022391906121f4565b60405180910390f35b61024660048036038101906102419190611ba1565b61081d565b60405161025391906124ba565b60405180910390f35b61027660048036038101906102719190611ba1565b6108d5565b604051610283919061225b565b60405180910390f35b6102946109e8565b6040516102a19190612298565b60405180910390f35b6102c460048036038101906102bf9190611ce4565b610a7a565b005b6102e060048036038101906102db9190611c61565b610bfb565b005b6102fc60048036038101906102f79190611e07565b610c5d565b6040516103099190612298565b60405180910390f35b61032c60048036038101906103279190611bce565b610daf565b604051610339919061227d565b60405180910390f35b60007f80ac58cd000000000000000000000000000000000000000000000000000000007bffffffffffffffffffffffffffffffffffffffffffffffffffffffff1916827bffffffffffffffffffffffffffffffffffffffffffffffffffffffff1916148061040d57507f5b5e139f000000000000000000000000000000000000000000000000000000007bffffffffffffffffffffffffffffffffffffffffffffffffffffffff1916827bffffffffffffffffffffffffffffffffffffffffffffffffffffffff1916145b8061041d575061041c82610e43565b5b9050919050565b60606000805461043390612808565b80601f016020809104026020016040519081016040528092919081815260200182805461045f90612808565b80156104ac5780601f10610481576101008083540402835291602001916104ac565b820191906000526020600020905b81548152906001019060200180831161048f57829003601f168201915b5050505050905090565b60006104c182610ead565b610500576040517f08c379a00000000000000000000000000000000000000000000000000000000081526004016104f79061241a565b60405180910390fd5b6004600083815260200190815260200160002060009054906101000a900473ffffffffffffffffffffffffffffffffffffffff169050919050565b60006105468261076b565b90508073ffffffffffffffffffffffffffffffffffffffff168373ffffffffffffffffffffffffffffffffffffffff1614156105b7576040517f08c379a00000000000000000000000000000000000000000000000000000000081526004016105ae9061247a565b60405180910390fd5b8073ffffffffffffffffffffffffffffffffffffffff166105d6610f19565b73ffffffffffffffffffffffffffffffffffffffff1614806106055750610604816105ff610f19565b610daf565b5b610644576040517f08c379a000000000000000000000000000000000000000000000000000000000815260040161063b9061235a565b60405180910390fd5b61064e8383610f21565b505050565b61066461065e610f19565b82610fda565b6106a3576040517f08c379a000000000000000000000000000000000000000000000000000000000815260040161069a9061249a565b60405180910390fd5b6106ae8383836110b8565b505050565b6106ce83838360405180602001604052806000815250610bfb565b505050565b6000806106df83611314565b90506106eb3382611349565b6106f58184611517565b8060076000600854815260200190815260200160002081905550600860008154809291906107229061286b565b91905055507f2169fca571ac413a2cd58ee7ce0947380b8aa3a5fc6dab5b6fcc5a5c14a2d3c081843360405161075a939291906124d5565b60405180910390a180915050919050565b6000806002600084815260200190815260200160002060009054906101000a900473ffffffffffffffffffffffffffffffffffffffff169050600073ffffffffffffffffffffffffffffffffffffffff168173ffffffffffffffffffffffffffffffffffffffff161415610814576040517f08c379a000000000000000000000000000000000000000000000000000000000815260040161080b9061239a565b60405180910390fd5b80915050919050565b60008073ffffffffffffffffffffffffffffffffffffffff168273ffffffffffffffffffffffffffffffffffffffff16141561088e576040517f08c379a00000000000000000000000000000000000000000000000000000000081526004016108859061237a565b60405180910390fd5b600360008373ffffffffffffffffffffffffffffffffffffffff1673ffffffffffffffffffffffffffffffffffffffff168152602001908152602001600020549050919050565b606060006108e28361081d565b905060008167ffffffffffffffff811115610900576108ff6129a1565b5b60405190808252806020026020018201604052801561092e5781602001602082028036833780820191505090505b5090506000805b6008548110156109dc5760006007600083815260200190815260200160002054905060006109628261076b565b90508773ffffffffffffffffffffffffffffffffffffffff168173ffffffffffffffffffffffffffffffffffffffff1614156109c757818585815181106109ac576109ab612972565b5b60200260200101818152505083806109c39061286b565b9450505b505080806109d49061286b565b915050610935565b50819350505050919050565b6060600180546109f790612808565b80601f0160208091040260200160405190810160405280929190818152602001828054610a2390612808565b8015610a705780601f10610a4557610100808354040283529160200191610a70565b820191906000526020600020905b815481529060010190602001808311610a5357829003601f168201915b5050505050905090565b610a82610f19565b73ffffffffffffffffffffffffffffffffffffffff168273ffffffffffffffffffffffffffffffffffffffff161415610af0576040517f08c379a0000000000000000000000000000000000000000000000000000000008152600401610ae79061231a565b60405180910390fd5b8060056000610afd610f19565b73ffffffffffffffffffffffffffffffffffffffff1673ffffffffffffffffffffffffffffffffffffffff16815260200190815260200160002060008473ffffffffffffffffffffffffffffffffffffffff1673ffffffffffffffffffffffffffffffffffffffff16815260200190815260200160002060006101000a81548160ff0219169083151502179055508173ffffffffffffffffffffffffffffffffffffffff16610baa610f19565b73ffffffffffffffffffffffffffffffffffffffff167f17307eab39ab6107e8899845ad3d59bd9653f200f220920489ca2b5937696c3183604051610bef919061227d565b60405180910390a35050565b610c0c610c06610f19565b83610fda565b610c4b576040517f08c379a0000000000000000000000000000000000000000000000000000000008152600401610c429061249a565b60405180910390fd5b610c578484848461158b565b50505050565b6060610c6882610ead565b610ca7576040517f08c379a0000000000000000000000000000000000000000000000000000000008152600401610c9e906123fa565b60405180910390fd5b6000600660008481526020019081526020016000208054610cc790612808565b80601f0160208091040260200160405190810160405280929190818152602001828054610cf390612808565b8015610d405780601f10610d1557610100808354040283529160200191610d40565b820191906000526020600020905b815481529060010190602001808311610d2357829003601f168201915b505050505090506000610d516115e7565b9050600081511415610d67578192505050610daa565b600082511115610d9c578082604051602001610d849291906121d0565b60405160208183030381529060405292505050610daa565b610da5846115fe565b925050505b919050565b6000600560008473ffffffffffffffffffffffffffffffffffffffff1673ffffffffffffffffffffffffffffffffffffffff16815260200190815260200160002060008373ffffffffffffffffffffffffffffffffffffffff1673ffffffffffffffffffffffffffffffffffffffff16815260200190815260200160002060009054906101000a900460ff16905092915050565b60007f01ffc9a7000000000000000000000000000000000000000000000000000000007bffffffffffffffffffffffffffffffffffffffffffffffffffffffff1916827bffffffffffffffffffffffffffffffffffffffffffffffffffffffff1916149050919050565b60008073ffffffffffffffffffffffffffffffffffffffff166002600084815260200190815260200160002060009054906101000a900473ffffffffffffffffffffffffffffffffffffffff1673ffffffffffffffffffffffffffffffffffffffff1614159050919050565b600033905090565b816004600083815260200190815260200160002060006101000a81548173ffffffffffffffffffffffffffffffffffffffff021916908373ffffffffffffffffffffffffffffffffffffffff160217905550808273ffffffffffffffffffffffffffffffffffffffff16610f948361076b565b73ffffffffffffffffffffffffffffffffffffffff167f8c5be1e5ebec7d5bd14f71427d1e84f3dd0314c0f7b2291e5b200ac8c7c3b92560405160405180910390a45050565b6000610fe582610ead565b611024576040517f08c379a000000000000000000000000000000000000000000000000000000000815260040161101b9061233a565b60405180910390fd5b600061102f8361076b565b90508073ffffffffffffffffffffffffffffffffffffffff168473ffffffffffffffffffffffffffffffffffffffff16148061109e57508373ffffffffffffffffffffffffffffffffffffffff16611086846104b6565b73ffffffffffffffffffffffffffffffffffffffff16145b806110af57506110ae8185610daf565b5b91505092915050565b8273ffffffffffffffffffffffffffffffffffffffff166110d88261076b565b73ffffffffffffffffffffffffffffffffffffffff161461112e576040517f08c379a00000000000000000000000000000000000000000000000000000000081526004016111259061243a565b60405180910390fd5b600073ffffffffffffffffffffffffffffffffffffffff168273ffffffffffffffffffffffffffffffffffffffff16141561119e576040517f08c379a0000000000000000000000000000000000000000000000000000000008152600401611195906122fa565b60405180910390fd5b6111a98383836116a5565b6111b4600082610f21565b6001600360008573ffffffffffffffffffffffffffffffffffffffff1673ffffffffffffffffffffffffffffffffffffffff168152602001908152602001600020600082825461120491906126ad565b925050819055506001600360008473ffffffffffffffffffffffffffffffffffffffff1673ffffffffffffffffffffffffffffffffffffffff168152602001908152602001600020600082825461125b9190612626565b92505081905550816002600083815260200190815260200160002060006101000a81548173ffffffffffffffffffffffffffffffffffffffff021916908373ffffffffffffffffffffffffffffffffffffffff160217905550808273ffffffffffffffffffffffffffffffffffffffff168473ffffffffffffffffffffffffffffffffffffffff167fddf252ad1be2c89b69c2b068fc378daa952ba7f163c4a11628f55a4df523b3ef60405160405180910390a4505050565b60008160405160200161132791906121b9565b60405160208183030381529060405261133f9061275f565b60001c9050919050565b600073ffffffffffffffffffffffffffffffffffffffff168273ffffffffffffffffffffffffffffffffffffffff1614156113b9576040517f08c379a00000000000000000000000000000000000000000000000000000000081526004016113b0906123da565b60405180910390fd5b6113c281610ead565b15611402576040517f08c379a00000000000000000000000000000000000000000000000000000000081526004016113f9906122da565b60405180910390fd5b61140e600083836116a5565b6001600360008473ffffffffffffffffffffffffffffffffffffffff1673ffffffffffffffffffffffffffffffffffffffff168152602001908152602001600020600082825461145e9190612626565b92505081905550816002600083815260200190815260200160002060006101000a81548173ffffffffffffffffffffffffffffffffffffffff021916908373ffffffffffffffffffffffffffffffffffffffff160217905550808273ffffffffffffffffffffffffffffffffffffffff16600073ffffffffffffffffffffffffffffffffffffffff167fddf252ad1be2c89b69c2b068fc378daa952ba7f163c4a11628f55a4df523b3ef60405160405180910390a45050565b61152082610ead565b61155f576040517f08c379a0000000000000000000000000000000000000000000000000000000008152600401611556906123ba565b60405180910390fd5b806006600084815260200190815260200160002090805190602001906115869291906119b5565b505050565b6115968484846110b8565b6115a2848484846116aa565b6115e1576040517f08c379a00000000000000000000000000000000000000000000000000000000081526004016115d8906122ba565b60405180910390fd5b50505050565b606060405180602001604052806000815250905090565b606061160982610ead565b611648576040517f08c379a000000000000000000000000000000000000000000000000000000000815260040161163f9061245a565b60405180910390fd5b60006116526115e7565b90506000815111611672576040518060200160405280600081525061169d565b8061167c84611841565b60405160200161168d9291906121d0565b6040516020818303038152906040525b915050919050565b505050565b60006116cb8473ffffffffffffffffffffffffffffffffffffffff166119a2565b15611834578373ffffffffffffffffffffffffffffffffffffffff1663150b7a026116f4610f19565b8786866040518563ffffffff1660e01b8152600401611716949392919061220f565b602060405180830381600087803b15801561173057600080fd5b505af192505050801561176157506040513d601f19601f8201168201806040525081019061175e9190611d91565b60015b6117e4573d8060008114611791576040519150601f19603f3d011682016040523d82523d6000602084013e611796565b606091505b506000815114156117dc576040517f08c379a00000000000000000000000000000000000000000000000000000000081526004016117d3906122ba565b60405180910390fd5b805181602001fd5b63150b7a0260e01b7bffffffffffffffffffffffffffffffffffffffffffffffffffffffff1916817bffffffffffffffffffffffffffffffffffffffffffffffffffffffff191614915050611839565b600190505b949350505050565b60606000821415611889576040518060400160405280600181526020017f3000000000000000000000000000000000000000000000000000000000000000815250905061199d565b600082905060005b600082146118bb5780806118a49061286b565b915050600a826118b4919061267c565b9150611891565b60008167ffffffffffffffff8111156118d7576118d66129a1565b5b6040519080825280601f01601f1916602001820160405280156119095781602001600182028036833780820191505090505b5090505b600085146119965760018261192291906126ad565b9150600a8561193191906128b4565b603061193d9190612626565b60f81b81838151811061195357611952612972565b5b60200101907effffffffffffffffffffffffffffffffffffffffffffffffffffffffffffff1916908160001a905350600a8561198f919061267c565b945061190d565b8093505050505b919050565b600080823b905060008111915050919050565b8280546119c190612808565b90600052602060002090601f0160209004810192826119e35760008555611a2a565b82601f106119fc57805160ff1916838001178555611a2a565b82800160010185558215611a2a579182015b82811115611a29578251825591602001919060010190611a0e565b5b509050611a379190611a3b565b5090565b5b80821115611a54576000816000905550600101611a3c565b5090565b6000611a6b611a6684612538565b612513565b905082815260208101848484011115611a8757611a866129ea565b5b611a928482856127c6565b509392505050565b6000611aad611aa884612569565b612513565b905082815260208101848484011115611ac957611ac86129ea565b5b611ad48482856127c6565b509392505050565b600081359050611aeb81612e95565b92915050565b600081359050611b0081612eac565b92915050565b600081359050611b1581612ec3565b92915050565b600081519050611b2a81612ec3565b92915050565b600082601f830112611b4557611b446129e5565b5b8135611b55848260208601611a58565b91505092915050565b600082601f830112611b7357611b726129e5565b5b8135611b83848260208601611a9a565b91505092915050565b600081359050611b9b81612eda565b92915050565b600060208284031215611bb757611bb66129f4565b5b6000611bc584828501611adc565b91505092915050565b60008060408385031215611be557611be46129f4565b5b6000611bf385828601611adc565b9250506020611c0485828601611adc565b9150509250929050565b600080600060608486031215611c2757611c266129f4565b5b6000611c3586828701611adc565b9350506020611c4686828701611adc565b9250506040611c5786828701611b8c565b9150509250925092565b60008060008060808587031215611c7b57611c7a6129f4565b5b6000611c8987828801611adc565b9450506020611c9a87828801611adc565b9350506040611cab87828801611b8c565b925050606085013567ffffffffffffffff811115611ccc57611ccb6129ef565b5b611cd887828801611b30565b91505092959194509250565b60008060408385031215611cfb57611cfa6129f4565b5b6000611d0985828601611adc565b9250506020611d1a85828601611af1565b9150509250929050565b60008060408385031215611d3b57611d3a6129f4565b5b6000611d4985828601611adc565b9250506020611d5a85828601611b8c565b9150509250929050565b600060208284031215611d7a57611d796129f4565b5b6000611d8884828501611b06565b91505092915050565b600060208284031215611da757611da66129f4565b5b6000611db584828501611b1b565b91505092915050565b600060208284031215611dd457611dd36129f4565b5b600082013567ffffffffffffffff811115611df257611df16129ef565b5b611dfe84828501611b5e565b91505092915050565b600060208284031215611e1d57611e1c6129f4565b5b6000611e2b84828501611b8c565b91505092915050565b6000611e40838361219b565b60208301905092915050565b611e55816126e1565b82525050565b6000611e66826125ba565b611e7081856125e8565b9350611e7b8361259a565b8060005b83811015611eac578151611e938882611e34565b9750611e9e836125db565b925050600181019050611e7f565b5085935050505092915050565b611ec2816126f3565b82525050565b6000611ed3826125c5565b611edd81856125f9565b9350611eed8185602086016127d5565b611ef6816129f9565b840191505092915050565b6000611f0c826125d0565b611f16818561260a565b9350611f268185602086016127d5565b611f2f816129f9565b840191505092915050565b6000611f45826125d0565b611f4f818561261b565b9350611f5f8185602086016127d5565b80840191505092915050565b6000611f7860328361260a565b9150611f8382612a17565b604082019050919050565b6000611f9b601c8361260a565b9150611fa682612a66565b602082019050919050565b6000611fbe60248361260a565b9150611fc982612a8f565b604082019050919050565b6000611fe160198361260a565b9150611fec82612ade565b602082019050919050565b6000612004602c8361260a565b915061200f82612b07565b604082019050919050565b600061202760388361260a565b915061203282612b56565b604082019050919050565b600061204a602a8361260a565b915061205582612ba5565b604082019050919050565b600061206d60298361260a565b915061207882612bf4565b604082019050919050565b6000612090602e8361260a565b915061209b82612c43565b604082019050919050565b60006120b360208361260a565b91506120be82612c92565b602082019050919050565b60006120d660318361260a565b91506120e182612cbb565b604082019050919050565b60006120f9602c8361260a565b915061210482612d0a565b604082019050919050565b600061211c60298361260a565b915061212782612d59565b604082019050919050565b600061213f602f8361260a565b915061214a82612da8565b604082019050919050565b600061216260218361260a565b915061216d82612df7565b604082019050919050565b600061218560318361260a565b915061219082612e46565b604082019050919050565b6121a481612755565b82525050565b6121b381612755565b82525050565b60006121c58284611f3a565b915081905092915050565b60006121dc8285611f3a565b91506121e88284611f3a565b91508190509392505050565b60006020820190506122096000830184611e4c565b92915050565b60006080820190506122246000830187611e4c565b6122316020830186611e4c565b61223e60408301856121aa565b81810360608301526122508184611ec8565b905095945050505050565b600060208201905081810360008301526122758184611e5b565b905092915050565b60006020820190506122926000830184611eb9565b92915050565b600060208201905081810360008301526122b28184611f01565b905092915050565b600060208201905081810360008301526122d381611f6b565b9050919050565b600060208201905081810360008301526122f381611f8e565b9050919050565b6000602082019050818103600083015261231381611fb1565b9050919050565b6000602082019050818103600083015261233381611fd4565b9050919050565b6000602082019050818103600083015261235381611ff7565b9050919050565b600060208201905081810360008301526123738161201a565b9050919050565b600060208201905081810360008301526123938161203d565b9050919050565b600060208201905081810360008301526123b381612060565b9050919050565b600060208201905081810360008301526123d381612083565b9050919050565b600060208201905081810360008301526123f3816120a6565b9050919050565b60006020820190508181036000830152612413816120c9565b9050919050565b60006020820190508181036000830152612433816120ec565b9050919050565b600060208201905081810360008301526124538161210f565b9050919050565b6000602082019050818103600083015261247381612132565b9050919050565b6000602082019050818103600083015261249381612155565b9050919050565b600060208201905081810360008301526124b381612178565b9050919050565b60006020820190506124cf60008301846121aa565b92915050565b60006060820190506124ea60008301866121aa565b81810360208301526124fc8185611f01565b905061250b6040830184611e4c565b949350505050565b600061251d61252e565b9050612529828261283a565b919050565b6000604051905090565b600067ffffffffffffffff821115612553576125526129a1565b5b61255c826129f9565b9050602081019050919050565b600067ffffffffffffffff821115612584576125836129a1565b5b61258d826129f9565b9050602081019050919050565b6000819050602082019050919050565b6000819050602082019050919050565b600081519050919050565b600081519050919050565b600081519050919050565b6000602082019050919050565b600082825260208201905092915050565b600082825260208201905092915050565b600082825260208201905092915050565b600081905092915050565b600061263182612755565b915061263c83612755565b9250827fffffffffffffffffffffffffffffffffffffffffffffffffffffffffffffffff03821115612671576126706128e5565b5b828201905092915050565b600061268782612755565b915061269283612755565b9250826126a2576126a1612914565b5b828204905092915050565b60006126b882612755565b91506126c383612755565b9250828210156126d6576126d56128e5565b5b828203905092915050565b60006126ec82612735565b9050919050565b60008115159050919050565b6000819050919050565b60007fffffffff0000000000000000000000000000000000000000000000000000000082169050919050565b600073ffffffffffffffffffffffffffffffffffffffff82169050919050565b6000819050919050565b600061276a826125c5565b82612774846125aa565b905061277f816129d0565b925060208210156127bf576127ba7fffffffffffffffffffffffffffffffffffffffffffffffffffffffffffffffff83602003600802612a0a565b831692505b5050919050565b82818337600083830152505050565b60005b838110156127f35780820151818401526020810190506127d8565b83811115612802576000848401525b50505050565b6000600282049050600182168061282057607f821691505b6020821081141561283457612833612943565b5b50919050565b612843826129f9565b810181811067ffffffffffffffff82111715612862576128616129a1565b5b80604052505050565b600061287682612755565b91507fffffffffffffffffffffffffffffffffffffffffffffffffffffffffffffffff8214156128a9576128a86128e5565b5b600182019050919050565b60006128bf82612755565b91506128ca83612755565b9250826128da576128d9612914565b5b828206905092915050565b7f4e487b7100000000000000000000000000000000000000000000000000000000600052601160045260246000fd5b7f4e487b7100000000000000000000000000000000000000000000000000000000600052601260045260246000fd5b7f4e487b7100000000000000000000000000000000000000000000000000000000600052602260045260246000fd5b7f4e487b7100000000000000000000000000000000000000000000000000000000600052603260045260246000fd5b7f4e487b7100000000000000000000000000000000000000000000000000000000600052604160045260246000fd5b60006129dc82516126ff565b80915050919050565b600080fd5b600080fd5b600080fd5b600080fd5b6000601f19601f8301169050919050565b600082821b905092915050565b7f4552433732313a207472616e7366657220746f206e6f6e20455243373231526560008201527f63656976657220696d706c656d656e7465720000000000000000000000000000602082015250565b7f4552433732313a20746f6b656e20616c7265616479206d696e74656400000000600082015250565b7f4552433732313a207472616e7366657220746f20746865207a65726f2061646460008201527f7265737300000000000000000000000000000000000000000000000000000000602082015250565b7f4552433732313a20617070726f766520746f2063616c6c657200000000000000600082015250565b7f4552433732313a206f70657261746f7220717565727920666f72206e6f6e657860008201527f697374656e7420746f6b656e0000000000000000000000000000000000000000602082015250565b7f4552433732313a20617070726f76652063616c6c6572206973206e6f74206f7760008201527f6e6572206e6f7220617070726f76656420666f7220616c6c0000000000000000602082015250565b7f4552433732313a2062616c616e636520717565727920666f7220746865207a6560008201527f726f206164647265737300000000000000000000000000000000000000000000602082015250565b7f4552433732313a206f776e657220717565727920666f72206e6f6e657869737460008201527f656e7420746f6b656e0000000000000000000000000000000000000000000000602082015250565b7f45524337323155524953746f726167653a2055524920736574206f66206e6f6e60008201527f6578697374656e7420746f6b656e000000000000000000000000000000000000602082015250565b7f4552433732313a206d696e7420746f20746865207a65726f2061646472657373600082015250565b7f45524337323155524953746f726167653a2055524920717565727920666f722060008201527f6e6f6e6578697374656e7420746f6b656e000000000000000000000000000000602082015250565b7f4552433732313a20617070726f76656420717565727920666f72206e6f6e657860008201527f697374656e7420746f6b656e0000000000000000000000000000000000000000602082015250565b7f4552433732313a207472616e73666572206f6620746f6b656e2074686174206960008201527f73206e6f74206f776e0000000000000000000000000000000000000000000000602082015250565b7f4552433732314d657461646174613a2055524920717565727920666f72206e6f60008201527f6e6578697374656e7420746f6b656e0000000000000000000000000000000000602082015250565b7f4552433732313a20617070726f76616c20746f2063757272656e74206f776e6560008201527f7200000000000000000000000000000000000000000000000000000000000000602082015250565b7f4552433732313a207472616e736665722063616c6c6572206973206e6f74206f60008201527f776e6572206e6f7220617070726f766564000000000000000000000000000000602082015250565b612e9e816126e1565b8114612ea957600080fd5b50565b612eb5816126f3565b8114612ec057600080fd5b50565b612ecc81612709565b8114612ed757600080fd5b50565b612ee381612755565b8114612eee57600080fd5b5056fea264697066735822122049a2de1ed2075c7818f3f10211e97eee9ea1e883bccb00731d60490fe5eae21564736f6c63430008070033",
  "immutableReferences": {},
  "source": "// SPDX-License-Identifier: MIT\npragma solidity ^0.8.7;\nimport \"@openzeppelin/contracts/token/ERC721/extensions/ERC721URIStorage.sol\";\n\ncontract NFT is ERC721URIStorage {\n  event TokenCreated(\n    uint256 tokenId,\n    string tokenURI,\n    address owner\n  );\n\n  constructor() ERC721(\"ART NFT\", \"ANT\") {\n  }\n\n  // key: index(0 1.) // value:  tokenId\n  mapping(uint256 => uint256) indexToTokenId;\n  uint256 mappingCount;\n\n\n  \n  /**\n   0. _tokenURI => tokenID \n   1. mint\n   2. setTokenURI\n   3. return tokenID\n   */\n  function createToken(string memory _tokenURI) public returns (uint256){\n    uint256 tokenId = _stringToUint(_tokenURI);\n    _mint(msg.sender, tokenId);\n    _setTokenURI(tokenId, _tokenURI);\n    \n    indexToTokenId[mappingCount] = tokenId;\n    mappingCount++;\n\n    emit TokenCreated(tokenId, _tokenURI, msg.sender);\n    return tokenId;\n  }\n\n  function fetchOwnedToken(address _owner) external view returns(uint256[] memory){\n    uint256 balance = balanceOf(_owner);\n    \n    // return  \n    uint256[] memory allTokens = new uint256[](balance); \n\n    uint256 idxCount = 0;\n\n    for (uint256 i=0; i<mappingCount; i++){\n      uint256 tokenId = indexToTokenId[i]; // tokenId\n      address owner = ownerOf(tokenId); //  token owner\n      if (owner == _owner){\n        allTokens[idxCount] = tokenId;\n        idxCount++;\n      }\n    }\n    return allTokens;\n  }\n\n  function _stringToUint(string memory _str) pure internal returns (uint256){\n    return uint256(bytes32(abi.encodePacked(_str)));\n  }\n}\n",
  "sourcePath": "C:\\Users\\user\\jeonnam_blockchain\\nft-new\\contracts\\NFT.sol",
  "compiler": {
    "name": "solc",
    "version": "0.8.7+commit.e28d00a7.Emscripten.clang"
  },
  "schemaVersion": "3.4.2",
  "updatedAt": "2021-09-03T11:20:27.976Z",
  "networkType": "ethereum",
  "devdoc": {
    "kind": "dev",
    "methods": {
      "approve(address,uint256)": {
        "details": "See {IERC721-approve}."
      },
      "balanceOf(address)": {
        "details": "See {IERC721-balanceOf}."
      },
      "getApproved(uint256)": {
        "details": "See {IERC721-getApproved}."
      },
      "isApprovedForAll(address,address)": {
        "details": "See {IERC721-isApprovedForAll}."
      },
      "name()": {
        "details": "See {IERC721Metadata-name}."
      },
      "ownerOf(uint256)": {
        "details": "See {IERC721-ownerOf}."
      },
      "safeTransferFrom(address,address,uint256)": {
        "details": "See {IERC721-safeTransferFrom}."
      },
      "safeTransferFrom(address,address,uint256,bytes)": {
        "details": "See {IERC721-safeTransferFrom}."
      },
      "setApprovalForAll(address,bool)": {
        "details": "See {IERC721-setApprovalForAll}."
      },
      "supportsInterface(bytes4)": {
        "details": "See {IERC165-supportsInterface}."
      },
      "symbol()": {
        "details": "See {IERC721Metadata-symbol}."
      },
      "tokenURI(uint256)": {
        "details": "See {IERC721Metadata-tokenURI}."
      },
      "transferFrom(address,address,uint256)": {
        "details": "See {IERC721-transferFrom}."
      }
    },
    "version": 1
  },
  "userdoc": {
    "kind": "user",
    "methods": {
      "createToken(string)": {
        "notice": "0. _tokenURI => tokenID  1. mint 2. setTokenURI 3. return tokenID"
      }
    },
    "version": 1
  }
}