{
  "contractName": "NFT",
  "abi": [
    {
      "inputs": [],
      "stateMutability": "nonpayable",
      "type": "constructor"
    },
    {
      "anonymous": false,
      "inputs": [
        {
          "indexed": true,
          "internalType": "address",
          "name": "owner",
          "type": "address"
        },
        {
          "indexed": true,
          "internalType": "address",
          "name": "approved",
          "type": "address"
        },
        {
          "indexed": true,
          "internalType": "uint256",
          "name": "tokenId",
          "type": "uint256"
        }
      ],
      "name": "Approval",
      "type": "event"
    },
    {
      "anonymous": false,
      "inputs": [
        {
          "indexed": true,
          "internalType": "address",
          "name": "owner",
          "type": "address"
        },
        {
          "indexed": true,
          "internalType": "address",
          "name": "operator",
          "type": "address"
        },
        {
          "indexed": false,
          "internalType": "bool",
          "name": "approved",
          "type": "bool"
        }
      ],
      "name": "ApprovalForAll",
      "type": "event"
    },
    {
      "anonymous": false,
      "inputs": [
        {
          "indexed": false,
          "internalType": "uint256",
          "name": "tokenId",
          "type": "uint256"
        },
        {
          "indexed": false,
          "internalType": "string",
          "name": "tokenURI",
          "type": "string"
        },
        {
          "indexed": false,
          "internalType": "address",
          "name": "owner",
          "type": "address"
        }
      ],
      "name": "TokenCreated",
      "type": "event"
    },
    {
      "anonymous": false,
      "inputs": [
        {
          "indexed": true,
          "internalType": "address",
          "name": "from",
          "type": "address"
        },
        {
          "indexed": true,
          "internalType": "address",
          "name": "to",
          "type": "address"
        },
        {
          "indexed": true,
          "internalType": "uint256",
          "name": "tokenId",
          "type": "uint256"
        }
      ],
      "name": "Transfer",
      "type": "event"
    },
    {
      "inputs": [
        {
          "internalType": "address",
          "name": "to",
          "type": "address"
        },
        {
          "internalType": "uint256",
          "name": "tokenId",
          "type": "uint256"
        }
      ],
      "name": "approve",
      "outputs": [],
      "stateMutability": "nonpayable",
      "type": "function"
    },
    {
      "inputs": [
        {
          "internalType": "address",
          "name": "owner",
          "type": "address"
        }
      ],
      "name": "balanceOf",
      "outputs": [
        {
          "internalType": "uint256",
          "name": "",
          "type": "uint256"
        }
      ],
      "stateMutability": "view",
      "type": "function"
    },
    {
      "inputs": [
        {
          "internalType": "uint256",
          "name": "tokenId",
          "type": "uint256"
        }
      ],
      "name": "getApproved",
      "outputs": [
        {
          "internalType": "address",
          "name": "",
          "type": "address"
        }
      ],
      "stateMutability": "view",
      "type": "function"
    },
    {
      "inputs": [
        {
          "internalType": "address",
          "name": "owner",
          "type": "address"
        },
        {
          "internalType": "address",
          "name": "operator",
          "type": "address"
        }
      ],
      "name": "isApprovedForAll",
      "outputs": [
        {
          "internalType": "bool",
          "name": "",
          "type": "bool"
        }
      ],
      "stateMutability": "view",
      "type": "function"
    },
    {
      "inputs": [],
      "name": "name",
      "outputs": [
        {
          "internalType": "string",
          "name": "",
          "type": "string"
        }
      ],
      "stateMutability": "view",
      "type": "function"
    },
    {
      "inputs": [
        {
          "internalType": "uint256",
          "name": "tokenId",
          "type": "uint256"
        }
      ],
      "name": "ownerOf",
      "outputs": [
        {
          "internalType": "address",
          "name": "",
          "type": "address"
        }
      ],
      "stateMutability": "view",
      "type": "function"
    },
    {
      "inputs": [
        {
          "internalType": "address",
          "name": "from",
          "type": "address"
        },
        {
          "internalType": "address",
          "name": "to",
          "type": "address"
        },
        {
          "internalType": "uint256",
          "name": "tokenId",
          "type": "uint256"
        }
      ],
      "name": "safeTransferFrom",
      "outputs": [],
      "stateMutability": "nonpayable",
      "type": "function"
    },
    {
      "inputs": [
        {
          "internalType": "address",
          "name": "from",
          "type": "address"
        },
        {
          "internalType": "address",
          "name": "to",
          "type": "address"
        },
        {
          "internalType": "uint256",
          "name": "tokenId",
          "type": "uint256"
        },
        {
          "internalType": "bytes",
          "name": "_data",
          "type": "bytes"
        }
      ],
      "name": "safeTransferFrom",
      "outputs": [],
      "stateMutability": "nonpayable",
      "type": "function"
    },
    {
      "inputs": [
        {
          "internalType": "address",
          "name": "operator",
          "type": "address"
        },
        {
          "internalType": "bool",
          "name": "approved",
          "type": "bool"
        }
      ],
      "name": "setApprovalForAll",
      "outputs": [],
      "stateMutability": "nonpayable",
      "type": "function"
    },
    {
      "inputs": [
        {
          "internalType": "bytes4",
          "name": "interfaceId",
          "type": "bytes4"
        }
      ],
      "name": "supportsInterface",
      "outputs": [
        {
          "internalType": "bool",
          "name": "",
          "type": "bool"
        }
      ],
      "stateMutability": "view",
      "type": "function"
    },
    {
      "inputs": [],
      "name": "symbol",
      "outputs": [
        {
          "internalType": "string",
          "name": "",
          "type": "string"
        }
      ],
      "stateMutability": "view",
      "type": "function"
    },
    {
      "inputs": [
        {
          "internalType": "uint256",
          "name": "tokenId",
          "type": "uint256"
        }
      ],
      "name": "tokenURI",
      "outputs": [
        {
          "internalType": "string",
          "name": "",
          "type": "string"
        }
      ],
      "stateMutability": "view",
      "type": "function"
    },
    {
      "inputs": [
        {
          "internalType": "address",
          "name": "from",
          "type": "address"
        },
        {
          "internalType": "address",
          "name": "to",
          "type": "address"
        },
        {
          "internalType": "uint256",
          "name": "tokenId",
          "type": "uint256"
        }
      ],
      "name": "transferFrom",
      "outputs": [],
      "stateMutability": "nonpayable",
      "type": "function"
    },
    {
      "inputs": [
        {
          "internalType": "string",
          "name": "_tokenURI",
          "type": "string"
        }
      ],
      "name": "createToken",
      "outputs": [
        {
          "internalType": "uint256",
          "name": "",
          "type": "uint256"
        }
      ],
      "stateMutability": "nonpayable",
      "type": "function"
    }
  ],
  "bytecode": "0x60806040523480156200001157600080fd5b506040518060400160405280600781526020017f415254204e4654000000000000000000000000000000000000000000000000008152506040518060400160405280600381526020017f414e540000000000000000000000000000000000000000000000000000000000815250816000908051906020019062000096929190620000b8565b508060019080519060200190620000af929190620000b8565b505050620001cd565b828054620000c69062000168565b90600052602060002090601f016020900481019282620000ea576000855562000136565b82601f106200010557805160ff191683800117855562000136565b8280016001018555821562000136579182015b828111156200013557825182559160200191906001019062000118565b5b50905062000145919062000149565b5090565b5b80821115620001645760008160009055506001016200014a565b5090565b600060028204905060018216806200018157607f821691505b602082108114156200019857620001976200019e565b5b50919050565b7f4e487b7100000000000000000000000000000000000000000000000000000000600052602260045260246000fd5b612cc780620001dd6000396000f3fe608060405234801561001057600080fd5b50600436106100ea5760003560e01c80636352211e1161008c578063a22cb46511610066578063a22cb4651461026f578063b88d4fde1461028b578063c87b56dd146102a7578063e985e9c5146102d7576100ea565b80636352211e146101f157806370a082311461022157806395d89b4114610251576100ea565b8063095ea7b3116100c8578063095ea7b31461016d57806323b872dd1461018957806342842e0e146101a557806345576f94146101c1576100ea565b806301ffc9a7146100ef57806306fdde031461011f578063081812fc1461013d575b600080fd5b61010960048036038101906101049190611be4565b610307565b6040516101169190612056565b60405180910390f35b6101276103e9565b6040516101349190612071565b60405180910390f35b61015760048036038101906101529190611c87565b61047b565b6040516101649190611fef565b60405180910390f35b61018760048036038101906101829190611ba4565b610500565b005b6101a3600480360381019061019e9190611a8e565b610618565b005b6101bf60048036038101906101ba9190611a8e565b610678565b005b6101db60048036038101906101d69190611c3e565b610698565b6040516101e89190612293565b60405180910390f35b61020b60048036038101906102069190611c87565b6106fe565b6040516102189190611fef565b60405180910390f35b61023b60048036038101906102369190611a21565b6107b0565b6040516102489190612293565b60405180910390f35b610259610868565b6040516102669190612071565b60405180910390f35b61028960048036038101906102849190611b64565b6108fa565b005b6102a560048036038101906102a09190611ae1565b610a7b565b005b6102c160048036038101906102bc9190611c87565b610add565b6040516102ce9190612071565b60405180910390f35b6102f160048036038101906102ec9190611a4e565b610c2f565b6040516102fe9190612056565b60405180910390f35b60007f80ac58cd000000000000000000000000000000000000000000000000000000007bffffffffffffffffffffffffffffffffffffffffffffffffffffffff1916827bffffffffffffffffffffffffffffffffffffffffffffffffffffffff191614806103d257507f5b5e139f000000000000000000000000000000000000000000000000000000007bffffffffffffffffffffffffffffffffffffffffffffffffffffffff1916827bffffffffffffffffffffffffffffffffffffffffffffffffffffffff1916145b806103e257506103e182610cc3565b5b9050919050565b6060600080546103f8906125a8565b80601f0160208091040260200160405190810160405280929190818152602001828054610424906125a8565b80156104715780601f1061044657610100808354040283529160200191610471565b820191906000526020600020905b81548152906001019060200180831161045457829003601f168201915b5050505050905090565b600061048682610d2d565b6104c5576040517f08c379a00000000000000000000000000000000000000000000000000000000081526004016104bc906121f3565b60405180910390fd5b6004600083815260200190815260200160002060009054906101000a900473ffffffffffffffffffffffffffffffffffffffff169050919050565b600061050b826106fe565b90508073ffffffffffffffffffffffffffffffffffffffff168373ffffffffffffffffffffffffffffffffffffffff16141561057c576040517f08c379a000000000000000000000000000000000000000000000000000000000815260040161057390612253565b60405180910390fd5b8073ffffffffffffffffffffffffffffffffffffffff1661059b610d99565b73ffffffffffffffffffffffffffffffffffffffff1614806105ca57506105c9816105c4610d99565b610c2f565b5b610609576040517f08c379a000000000000000000000000000000000000000000000000000000000815260040161060090612133565b60405180910390fd5b6106138383610da1565b505050565b610629610623610d99565b82610e5a565b610668576040517f08c379a000000000000000000000000000000000000000000000000000000000815260040161065f90612273565b60405180910390fd5b610673838383610f38565b505050565b61069383838360405180602001604052806000815250610a7b565b505050565b6000806106a483611194565b90506106b033826111c9565b6106ba8184611397565b7f2169fca571ac413a2cd58ee7ce0947380b8aa3a5fc6dab5b6fcc5a5c14a2d3c08184336040516106ed939291906122ae565b60405180910390a180915050919050565b6000806002600084815260200190815260200160002060009054906101000a900473ffffffffffffffffffffffffffffffffffffffff169050600073ffffffffffffffffffffffffffffffffffffffff168173ffffffffffffffffffffffffffffffffffffffff1614156107a7576040517f08c379a000000000000000000000000000000000000000000000000000000000815260040161079e90612173565b60405180910390fd5b80915050919050565b60008073ffffffffffffffffffffffffffffffffffffffff168273ffffffffffffffffffffffffffffffffffffffff161415610821576040517f08c379a000000000000000000000000000000000000000000000000000000000815260040161081890612153565b60405180910390fd5b600360008373ffffffffffffffffffffffffffffffffffffffff1673ffffffffffffffffffffffffffffffffffffffff168152602001908152602001600020549050919050565b606060018054610877906125a8565b80601f01602080910402602001604051908101604052809291908181526020018280546108a3906125a8565b80156108f05780601f106108c5576101008083540402835291602001916108f0565b820191906000526020600020905b8154815290600101906020018083116108d357829003601f168201915b5050505050905090565b610902610d99565b73ffffffffffffffffffffffffffffffffffffffff168273ffffffffffffffffffffffffffffffffffffffff161415610970576040517f08c379a0000000000000000000000000000000000000000000000000000000008152600401610967906120f3565b60405180910390fd5b806005600061097d610d99565b73ffffffffffffffffffffffffffffffffffffffff1673ffffffffffffffffffffffffffffffffffffffff16815260200190815260200160002060008473ffffffffffffffffffffffffffffffffffffffff1673ffffffffffffffffffffffffffffffffffffffff16815260200190815260200160002060006101000a81548160ff0219169083151502179055508173ffffffffffffffffffffffffffffffffffffffff16610a2a610d99565b73ffffffffffffffffffffffffffffffffffffffff167f17307eab39ab6107e8899845ad3d59bd9653f200f220920489ca2b5937696c3183604051610a6f9190612056565b60405180910390a35050565b610a8c610a86610d99565b83610e5a565b610acb576040517f08c379a0000000000000000000000000000000000000000000000000000000008152600401610ac290612273565b60405180910390fd5b610ad78484848461140b565b50505050565b6060610ae882610d2d565b610b27576040517f08c379a0000000000000000000000000000000000000000000000000000000008152600401610b1e906121d3565b60405180910390fd5b6000600660008481526020019081526020016000208054610b47906125a8565b80601f0160208091040260200160405190810160405280929190818152602001828054610b73906125a8565b8015610bc05780601f10610b9557610100808354040283529160200191610bc0565b820191906000526020600020905b815481529060010190602001808311610ba357829003601f168201915b505050505090506000610bd1611467565b9050600081511415610be7578192505050610c2a565b600082511115610c1c578082604051602001610c04929190611fcb565b60405160208183030381529060405292505050610c2a565b610c258461147e565b925050505b919050565b6000600560008473ffffffffffffffffffffffffffffffffffffffff1673ffffffffffffffffffffffffffffffffffffffff16815260200190815260200160002060008373ffffffffffffffffffffffffffffffffffffffff1673ffffffffffffffffffffffffffffffffffffffff16815260200190815260200160002060009054906101000a900460ff16905092915050565b60007f01ffc9a7000000000000000000000000000000000000000000000000000000007bffffffffffffffffffffffffffffffffffffffffffffffffffffffff1916827bffffffffffffffffffffffffffffffffffffffffffffffffffffffff1916149050919050565b60008073ffffffffffffffffffffffffffffffffffffffff166002600084815260200190815260200160002060009054906101000a900473ffffffffffffffffffffffffffffffffffffffff1673ffffffffffffffffffffffffffffffffffffffff1614159050919050565b600033905090565b816004600083815260200190815260200160002060006101000a81548173ffffffffffffffffffffffffffffffffffffffff021916908373ffffffffffffffffffffffffffffffffffffffff160217905550808273ffffffffffffffffffffffffffffffffffffffff16610e14836106fe565b73ffffffffffffffffffffffffffffffffffffffff167f8c5be1e5ebec7d5bd14f71427d1e84f3dd0314c0f7b2291e5b200ac8c7c3b92560405160405180910390a45050565b6000610e6582610d2d565b610ea4576040517f08c379a0000000000000000000000000000000000000000000000000000000008152600401610e9b90612113565b60405180910390fd5b6000610eaf836106fe565b90508073ffffffffffffffffffffffffffffffffffffffff168473ffffffffffffffffffffffffffffffffffffffff161480610f1e57508373ffffffffffffffffffffffffffffffffffffffff16610f068461047b565b73ffffffffffffffffffffffffffffffffffffffff16145b80610f2f5750610f2e8185610c2f565b5b91505092915050565b8273ffffffffffffffffffffffffffffffffffffffff16610f58826106fe565b73ffffffffffffffffffffffffffffffffffffffff1614610fae576040517f08c379a0000000000000000000000000000000000000000000000000000000008152600401610fa590612213565b60405180910390fd5b600073ffffffffffffffffffffffffffffffffffffffff168273ffffffffffffffffffffffffffffffffffffffff16141561101e576040517f08c379a0000000000000000000000000000000000000000000000000000000008152600401611015906120d3565b60405180910390fd5b611029838383611525565b611034600082610da1565b6001600360008573ffffffffffffffffffffffffffffffffffffffff1673ffffffffffffffffffffffffffffffffffffffff1681526020019081526020016000206000828254611084919061244d565b925050819055506001600360008473ffffffffffffffffffffffffffffffffffffffff1673ffffffffffffffffffffffffffffffffffffffff16815260200190815260200160002060008282546110db91906123c6565b92505081905550816002600083815260200190815260200160002060006101000a81548173ffffffffffffffffffffffffffffffffffffffff021916908373ffffffffffffffffffffffffffffffffffffffff160217905550808273ffffffffffffffffffffffffffffffffffffffff168473ffffffffffffffffffffffffffffffffffffffff167fddf252ad1be2c89b69c2b068fc378daa952ba7f163c4a11628f55a4df523b3ef60405160405180910390a4505050565b6000816040516020016111a79190611fb4565b6040516020818303038152906040526111bf906124ff565b60001c9050919050565b600073ffffffffffffffffffffffffffffffffffffffff168273ffffffffffffffffffffffffffffffffffffffff161415611239576040517f08c379a0000000000000000000000000000000000000000000000000000000008152600401611230906121b3565b60405180910390fd5b61124281610d2d565b15611282576040517f08c379a0000000000000000000000000000000000000000000000000000000008152600401611279906120b3565b60405180910390fd5b61128e60008383611525565b6001600360008473ffffffffffffffffffffffffffffffffffffffff1673ffffffffffffffffffffffffffffffffffffffff16815260200190815260200160002060008282546112de91906123c6565b92505081905550816002600083815260200190815260200160002060006101000a81548173ffffffffffffffffffffffffffffffffffffffff021916908373ffffffffffffffffffffffffffffffffffffffff160217905550808273ffffffffffffffffffffffffffffffffffffffff16600073ffffffffffffffffffffffffffffffffffffffff167fddf252ad1be2c89b69c2b068fc378daa952ba7f163c4a11628f55a4df523b3ef60405160405180910390a45050565b6113a082610d2d565b6113df576040517f08c379a00000000000000000000000000000000000000000000000000000000081526004016113d690612193565b60405180910390fd5b80600660008481526020019081526020016000209080519060200190611406929190611835565b505050565b611416848484610f38565b6114228484848461152a565b611461576040517f08c379a000000000000000000000000000000000000000000000000000000000815260040161145890612093565b60405180910390fd5b50505050565b606060405180602001604052806000815250905090565b606061148982610d2d565b6114c8576040517f08c379a00000000000000000000000000000000000000000000000000000000081526004016114bf90612233565b60405180910390fd5b60006114d2611467565b905060008151116114f2576040518060200160405280600081525061151d565b806114fc846116c1565b60405160200161150d929190611fcb565b6040516020818303038152906040525b915050919050565b505050565b600061154b8473ffffffffffffffffffffffffffffffffffffffff16611822565b156116b4578373ffffffffffffffffffffffffffffffffffffffff1663150b7a02611574610d99565b8786866040518563ffffffff1660e01b8152600401611596949392919061200a565b602060405180830381600087803b1580156115b057600080fd5b505af19250505080156115e157506040513d601f19601f820116820180604052508101906115de9190611c11565b60015b611664573d8060008114611611576040519150601f19603f3d011682016040523d82523d6000602084013e611616565b606091505b5060008151141561165c576040517f08c379a000000000000000000000000000000000000000000000000000000000815260040161165390612093565b60405180910390fd5b805181602001fd5b63150b7a0260e01b7bffffffffffffffffffffffffffffffffffffffffffffffffffffffff1916817bffffffffffffffffffffffffffffffffffffffffffffffffffffffff1916149150506116b9565b600190505b949350505050565b60606000821415611709576040518060400160405280600181526020017f3000000000000000000000000000000000000000000000000000000000000000815250905061181d565b600082905060005b6000821461173b5780806117249061260b565b915050600a82611734919061241c565b9150611711565b60008167ffffffffffffffff81111561175757611756612741565b5b6040519080825280601f01601f1916602001820160405280156117895781602001600182028036833780820191505090505b5090505b60008514611816576001826117a2919061244d565b9150600a856117b19190612654565b60306117bd91906123c6565b60f81b8183815181106117d3576117d2612712565b5b60200101907effffffffffffffffffffffffffffffffffffffffffffffffffffffffffffff1916908160001a905350600a8561180f919061241c565b945061178d565b8093505050505b919050565b600080823b905060008111915050919050565b828054611841906125a8565b90600052602060002090601f01602090048101928261186357600085556118aa565b82601f1061187c57805160ff19168380011785556118aa565b828001600101855582156118aa579182015b828111156118a957825182559160200191906001019061188e565b5b5090506118b791906118bb565b5090565b5b808211156118d45760008160009055506001016118bc565b5090565b60006118eb6118e684612311565b6122ec565b9050828152602081018484840111156119075761190661278a565b5b611912848285612566565b509392505050565b600061192d61192884612342565b6122ec565b9050828152602081018484840111156119495761194861278a565b5b611954848285612566565b509392505050565b60008135905061196b81612c35565b92915050565b60008135905061198081612c4c565b92915050565b60008135905061199581612c63565b92915050565b6000815190506119aa81612c63565b92915050565b600082601f8301126119c5576119c4612785565b5b81356119d58482602086016118d8565b91505092915050565b600082601f8301126119f3576119f2612785565b5b8135611a0384826020860161191a565b91505092915050565b600081359050611a1b81612c7a565b92915050565b600060208284031215611a3757611a36612794565b5b6000611a458482850161195c565b91505092915050565b60008060408385031215611a6557611a64612794565b5b6000611a738582860161195c565b9250506020611a848582860161195c565b9150509250929050565b600080600060608486031215611aa757611aa6612794565b5b6000611ab58682870161195c565b9350506020611ac68682870161195c565b9250506040611ad786828701611a0c565b9150509250925092565b60008060008060808587031215611afb57611afa612794565b5b6000611b098782880161195c565b9450506020611b1a8782880161195c565b9350506040611b2b87828801611a0c565b925050606085013567ffffffffffffffff811115611b4c57611b4b61278f565b5b611b58878288016119b0565b91505092959194509250565b60008060408385031215611b7b57611b7a612794565b5b6000611b898582860161195c565b9250506020611b9a85828601611971565b9150509250929050565b60008060408385031215611bbb57611bba612794565b5b6000611bc98582860161195c565b9250506020611bda85828601611a0c565b9150509250929050565b600060208284031215611bfa57611bf9612794565b5b6000611c0884828501611986565b91505092915050565b600060208284031215611c2757611c26612794565b5b6000611c358482850161199b565b91505092915050565b600060208284031215611c5457611c53612794565b5b600082013567ffffffffffffffff811115611c7257611c7161278f565b5b611c7e848285016119de565b91505092915050565b600060208284031215611c9d57611c9c612794565b5b6000611cab84828501611a0c565b91505092915050565b611cbd81612481565b82525050565b611ccc81612493565b82525050565b6000611cdd82612383565b611ce78185612399565b9350611cf7818560208601612575565b611d0081612799565b840191505092915050565b6000611d168261238e565b611d2081856123aa565b9350611d30818560208601612575565b611d3981612799565b840191505092915050565b6000611d4f8261238e565b611d5981856123bb565b9350611d69818560208601612575565b80840191505092915050565b6000611d826032836123aa565b9150611d8d826127b7565b604082019050919050565b6000611da5601c836123aa565b9150611db082612806565b602082019050919050565b6000611dc86024836123aa565b9150611dd38261282f565b604082019050919050565b6000611deb6019836123aa565b9150611df68261287e565b602082019050919050565b6000611e0e602c836123aa565b9150611e19826128a7565b604082019050919050565b6000611e316038836123aa565b9150611e3c826128f6565b604082019050919050565b6000611e54602a836123aa565b9150611e5f82612945565b604082019050919050565b6000611e776029836123aa565b9150611e8282612994565b604082019050919050565b6000611e9a602e836123aa565b9150611ea5826129e3565b604082019050919050565b6000611ebd6020836123aa565b9150611ec882612a32565b602082019050919050565b6000611ee06031836123aa565b9150611eeb82612a5b565b604082019050919050565b6000611f03602c836123aa565b9150611f0e82612aaa565b604082019050919050565b6000611f266029836123aa565b9150611f3182612af9565b604082019050919050565b6000611f49602f836123aa565b9150611f5482612b48565b604082019050919050565b6000611f6c6021836123aa565b9150611f7782612b97565b604082019050919050565b6000611f8f6031836123aa565b9150611f9a82612be6565b604082019050919050565b611fae816124f5565b82525050565b6000611fc08284611d44565b915081905092915050565b6000611fd78285611d44565b9150611fe38284611d44565b91508190509392505050565b60006020820190506120046000830184611cb4565b92915050565b600060808201905061201f6000830187611cb4565b61202c6020830186611cb4565b6120396040830185611fa5565b818103606083015261204b8184611cd2565b905095945050505050565b600060208201905061206b6000830184611cc3565b92915050565b6000602082019050818103600083015261208b8184611d0b565b905092915050565b600060208201905081810360008301526120ac81611d75565b9050919050565b600060208201905081810360008301526120cc81611d98565b9050919050565b600060208201905081810360008301526120ec81611dbb565b9050919050565b6000602082019050818103600083015261210c81611dde565b9050919050565b6000602082019050818103600083015261212c81611e01565b9050919050565b6000602082019050818103600083015261214c81611e24565b9050919050565b6000602082019050818103600083015261216c81611e47565b9050919050565b6000602082019050818103600083015261218c81611e6a565b9050919050565b600060208201905081810360008301526121ac81611e8d565b9050919050565b600060208201905081810360008301526121cc81611eb0565b9050919050565b600060208201905081810360008301526121ec81611ed3565b9050919050565b6000602082019050818103600083015261220c81611ef6565b9050919050565b6000602082019050818103600083015261222c81611f19565b9050919050565b6000602082019050818103600083015261224c81611f3c565b9050919050565b6000602082019050818103600083015261226c81611f5f565b9050919050565b6000602082019050818103600083015261228c81611f82565b9050919050565b60006020820190506122a86000830184611fa5565b92915050565b60006060820190506122c36000830186611fa5565b81810360208301526122d58185611d0b565b90506122e46040830184611cb4565b949350505050565b60006122f6612307565b905061230282826125da565b919050565b6000604051905090565b600067ffffffffffffffff82111561232c5761232b612741565b5b61233582612799565b9050602081019050919050565b600067ffffffffffffffff82111561235d5761235c612741565b5b61236682612799565b9050602081019050919050565b6000819050602082019050919050565b600081519050919050565b600081519050919050565b600082825260208201905092915050565b600082825260208201905092915050565b600081905092915050565b60006123d1826124f5565b91506123dc836124f5565b9250827fffffffffffffffffffffffffffffffffffffffffffffffffffffffffffffffff0382111561241157612410612685565b5b828201905092915050565b6000612427826124f5565b9150612432836124f5565b925082612442576124416126b4565b5b828204905092915050565b6000612458826124f5565b9150612463836124f5565b92508282101561247657612475612685565b5b828203905092915050565b600061248c826124d5565b9050919050565b60008115159050919050565b6000819050919050565b60007fffffffff0000000000000000000000000000000000000000000000000000000082169050919050565b600073ffffffffffffffffffffffffffffffffffffffff82169050919050565b6000819050919050565b600061250a82612383565b8261251484612373565b905061251f81612770565b9250602082101561255f5761255a7fffffffffffffffffffffffffffffffffffffffffffffffffffffffffffffffff836020036008026127aa565b831692505b5050919050565b82818337600083830152505050565b60005b83811015612593578082015181840152602081019050612578565b838111156125a2576000848401525b50505050565b600060028204905060018216806125c057607f821691505b602082108114156125d4576125d36126e3565b5b50919050565b6125e382612799565b810181811067ffffffffffffffff8211171561260257612601612741565b5b80604052505050565b6000612616826124f5565b91507fffffffffffffffffffffffffffffffffffffffffffffffffffffffffffffffff82141561264957612648612685565b5b600182019050919050565b600061265f826124f5565b915061266a836124f5565b92508261267a576126796126b4565b5b828206905092915050565b7f4e487b7100000000000000000000000000000000000000000000000000000000600052601160045260246000fd5b7f4e487b7100000000000000000000000000000000000000000000000000000000600052601260045260246000fd5b7f4e487b7100000000000000000000000000000000000000000000000000000000600052602260045260246000fd5b7f4e487b7100000000000000000000000000000000000000000000000000000000600052603260045260246000fd5b7f4e487b7100000000000000000000000000000000000000000000000000000000600052604160045260246000fd5b600061277c825161249f565b80915050919050565b600080fd5b600080fd5b600080fd5b600080fd5b6000601f19601f8301169050919050565b600082821b905092915050565b7f4552433732313a207472616e7366657220746f206e6f6e20455243373231526560008201527f63656976657220696d706c656d656e7465720000000000000000000000000000602082015250565b7f4552433732313a20746f6b656e20616c7265616479206d696e74656400000000600082015250565b7f4552433732313a207472616e7366657220746f20746865207a65726f2061646460008201527f7265737300000000000000000000000000000000000000000000000000000000602082015250565b7f4552433732313a20617070726f766520746f2063616c6c657200000000000000600082015250565b7f4552433732313a206f70657261746f7220717565727920666f72206e6f6e657860008201527f697374656e7420746f6b656e0000000000000000000000000000000000000000602082015250565b7f4552433732313a20617070726f76652063616c6c6572206973206e6f74206f7760008201527f6e6572206e6f7220617070726f76656420666f7220616c6c0000000000000000602082015250565b7f4552433732313a2062616c616e636520717565727920666f7220746865207a6560008201527f726f206164647265737300000000000000000000000000000000000000000000602082015250565b7f4552433732313a206f776e657220717565727920666f72206e6f6e657869737460008201527f656e7420746f6b656e0000000000000000000000000000000000000000000000602082015250565b7f45524337323155524953746f726167653a2055524920736574206f66206e6f6e60008201527f6578697374656e7420746f6b656e000000000000000000000000000000000000602082015250565b7f4552433732313a206d696e7420746f20746865207a65726f2061646472657373600082015250565b7f45524337323155524953746f726167653a2055524920717565727920666f722060008201527f6e6f6e6578697374656e7420746f6b656e000000000000000000000000000000602082015250565b7f4552433732313a20617070726f76656420717565727920666f72206e6f6e657860008201527f697374656e7420746f6b656e0000000000000000000000000000000000000000602082015250565b7f4552433732313a207472616e73666572206f6620746f6b656e2074686174206960008201527f73206e6f74206f776e0000000000000000000000000000000000000000000000602082015250565b7f4552433732314d657461646174613a2055524920717565727920666f72206e6f60008201527f6e6578697374656e7420746f6b656e0000000000000000000000000000000000602082015250565b7f4552433732313a20617070726f76616c20746f2063757272656e74206f776e6560008201527f7200000000000000000000000000000000000000000000000000000000000000602082015250565b7f4552433732313a207472616e736665722063616c6c6572206973206e6f74206f60008201527f776e6572206e6f7220617070726f766564000000000000000000000000000000602082015250565b612c3e81612481565b8114612c4957600080fd5b50565b612c5581612493565b8114612c6057600080fd5b50565b612c6c816124a9565b8114612c7757600080fd5b50565b612c83816124f5565b8114612c8e57600080fd5b5056fea2646970667358221220043dfaf451c4d4654c03fa5946092840fc78a617db3e43676864ec86a066fdd964736f6c63430008070033",
  "immutableReferences": {},
  "source": "// SPDX-License-Identifier: MIT\npragma solidity ^0.8.7;\nimport \"@openzeppelin/contracts/token/ERC721/extensions/ERC721URIStorage.sol\";\n\ncontract NFT is ERC721URIStorage {\n  event TokenCreated(\n    uint256 tokenId,\n    string tokenURI,\n    address owner\n  );\n\n  constructor() ERC721(\"ART NFT\", \"ANT\") {\n  }\n  \n  /**\n   0. _tokenURI => tokenID \n   1. mint\n   2. setTokenURI\n   3. return tokenID\n   */\n  function createToken(string memory _tokenURI) public returns (uint256){\n    uint256 tokenId = _stringToUint(_tokenURI);\n    _mint(msg.sender, tokenId);\n    _setTokenURI(tokenId, _tokenURI);\n    \n    emit TokenCreated(tokenId, _tokenURI, msg.sender);\n    return tokenId;\n  }\n\n  function _stringToUint(string memory _str) pure internal returns (uint256){\n    return uint256(bytes32(abi.encodePacked(_str)));\n  }\n}\n",
  "sourcePath": "C:\\Users\\user\\jeonnam_blockchain\\nft-new\\contracts\\NFT.sol",
  "compiler": {
    "name": "solc",
    "version": "0.8.7+commit.e28d00a7.Emscripten.clang"
  },
  "schemaVersion": "3.4.2",
  "updatedAt": "2021-08-31T13:49:17.911Z",
  "devdoc": {
    "kind": "dev",
    "methods": {
      "approve(address,uint256)": {
        "details": "See {IERC721-approve}."
      },
      "balanceOf(address)": {
        "details": "See {IERC721-balanceOf}."
      },
      "getApproved(uint256)": {
        "details": "See {IERC721-getApproved}."
      },
      "isApprovedForAll(address,address)": {
        "details": "See {IERC721-isApprovedForAll}."
      },
      "name()": {
        "details": "See {IERC721Metadata-name}."
      },
      "ownerOf(uint256)": {
        "details": "See {IERC721-ownerOf}."
      },
      "safeTransferFrom(address,address,uint256)": {
        "details": "See {IERC721-safeTransferFrom}."
      },
      "safeTransferFrom(address,address,uint256,bytes)": {
        "details": "See {IERC721-safeTransferFrom}."
      },
      "setApprovalForAll(address,bool)": {
        "details": "See {IERC721-setApprovalForAll}."
      },
      "supportsInterface(bytes4)": {
        "details": "See {IERC165-supportsInterface}."
      },
      "symbol()": {
        "details": "See {IERC721Metadata-symbol}."
      },
      "tokenURI(uint256)": {
        "details": "See {IERC721Metadata-tokenURI}."
      },
      "transferFrom(address,address,uint256)": {
        "details": "See {IERC721-transferFrom}."
      }
    },
    "version": 1
  },
  "userdoc": {
    "kind": "user",
    "methods": {
      "createToken(string)": {
        "notice": "0. _tokenURI => tokenID  1. mint 2. setTokenURI 3. return tokenID"
      }
    },
    "version": 1
  }
}