{
  "contractName": "NFTMarket",
  "abi": [
    {
      "anonymous": false,
      "inputs": [
        {
          "indexed": false,
          "internalType": "uint256",
          "name": "itemId",
          "type": "uint256"
        },
        {
          "indexed": false,
          "internalType": "address",
          "name": "nftContract",
          "type": "address"
        },
        {
          "indexed": false,
          "internalType": "uint256",
          "name": "tokenId",
          "type": "uint256"
        },
        {
          "indexed": false,
          "internalType": "uint256",
          "name": "price",
          "type": "uint256"
        },
        {
          "indexed": false,
          "internalType": "address",
          "name": "seller",
          "type": "address"
        },
        {
          "indexed": false,
          "internalType": "address",
          "name": "buyer",
          "type": "address"
        },
        {
          "indexed": false,
          "internalType": "uint8",
          "name": "status",
          "type": "uint8"
        }
      ],
      "name": "MarketItemChanged",
      "type": "event"
    },
    {
      "anonymous": false,
      "inputs": [
        {
          "indexed": true,
          "internalType": "address",
          "name": "previousOwner",
          "type": "address"
        },
        {
          "indexed": true,
          "internalType": "address",
          "name": "newOwner",
          "type": "address"
        }
      ],
      "name": "OwnershipTransferred",
      "type": "event"
    },
    {
      "inputs": [],
      "name": "owner",
      "outputs": [
        {
          "internalType": "address",
          "name": "",
          "type": "address"
        }
      ],
      "stateMutability": "view",
      "type": "function",
      "constant": true
    },
    {
      "inputs": [],
      "name": "renounceOwnership",
      "outputs": [],
      "stateMutability": "nonpayable",
      "type": "function"
    },
    {
      "inputs": [
        {
          "internalType": "address",
          "name": "newOwner",
          "type": "address"
        }
      ],
      "name": "transferOwnership",
      "outputs": [],
      "stateMutability": "nonpayable",
      "type": "function"
    },
    {
      "inputs": [
        {
          "internalType": "uint256",
          "name": "price",
          "type": "uint256"
        }
      ],
      "name": "setListingPrice",
      "outputs": [],
      "stateMutability": "nonpayable",
      "type": "function"
    },
    {
      "inputs": [],
      "name": "listingPrice",
      "outputs": [
        {
          "internalType": "uint256",
          "name": "",
          "type": "uint256"
        }
      ],
      "stateMutability": "view",
      "type": "function",
      "constant": true
    },
    {
      "inputs": [
        {
          "internalType": "uint256",
          "name": "_fee",
          "type": "uint256"
        }
      ],
      "name": "setMarketFee",
      "outputs": [],
      "stateMutability": "nonpayable",
      "type": "function"
    },
    {
      "inputs": [],
      "name": "marketFee",
      "outputs": [
        {
          "internalType": "uint256",
          "name": "",
          "type": "uint256"
        }
      ],
      "stateMutability": "view",
      "type": "function",
      "constant": true
    },
    {
      "inputs": [
        {
          "internalType": "uint256",
          "name": "_amount",
          "type": "uint256"
        }
      ],
      "name": "withdraw",
      "outputs": [],
      "stateMutability": "nonpayable",
      "type": "function"
    },
    {
      "inputs": [
        {
          "internalType": "address",
          "name": "_nftContract",
          "type": "address"
        },
        {
          "internalType": "uint256",
          "name": "_tokenId",
          "type": "uint256"
        },
        {
          "internalType": "uint256",
          "name": "_price",
          "type": "uint256"
        }
      ],
      "name": "createMarketItem",
      "outputs": [],
      "stateMutability": "payable",
      "type": "function",
      "payable": true
    },
    {
      "inputs": [
        {
          "internalType": "uint256",
          "name": "_itemId",
          "type": "uint256"
        }
      ],
      "name": "createMarketSale",
      "outputs": [],
      "stateMutability": "payable",
      "type": "function",
      "payable": true
    },
    {
      "inputs": [
        {
          "internalType": "uint256",
          "name": "itemId",
          "type": "uint256"
        }
      ],
      "name": "cancelMarketItem",
      "outputs": [],
      "stateMutability": "nonpayable",
      "type": "function"
    },
    {
      "inputs": [],
      "name": "fetchActiveMarketItems",
      "outputs": [
        {
          "components": [
            {
              "internalType": "uint256",
              "name": "itemId",
              "type": "uint256"
            },
            {
              "internalType": "uint256",
              "name": "tokenId",
              "type": "uint256"
            },
            {
              "internalType": "uint256",
              "name": "price",
              "type": "uint256"
            },
            {
              "internalType": "address",
              "name": "nftContract",
              "type": "address"
            },
            {
              "internalType": "address",
              "name": "seller",
              "type": "address"
            },
            {
              "internalType": "address",
              "name": "buyer",
              "type": "address"
            },
            {
              "internalType": "uint8",
              "name": "status",
              "type": "uint8"
            }
          ],
          "internalType": "struct NFTMarket.MarketItem[]",
          "name": "",
          "type": "tuple[]"
        }
      ],
      "stateMutability": "view",
      "type": "function",
      "constant": true
    },
    {
      "inputs": [],
      "name": "marketItems",
      "outputs": [
        {
          "components": [
            {
              "internalType": "uint256",
              "name": "itemId",
              "type": "uint256"
            },
            {
              "internalType": "uint256",
              "name": "tokenId",
              "type": "uint256"
            },
            {
              "internalType": "uint256",
              "name": "price",
              "type": "uint256"
            },
            {
              "internalType": "address",
              "name": "nftContract",
              "type": "address"
            },
            {
              "internalType": "address",
              "name": "seller",
              "type": "address"
            },
            {
              "internalType": "address",
              "name": "buyer",
              "type": "address"
            },
            {
              "internalType": "uint8",
              "name": "status",
              "type": "uint8"
            }
          ],
          "internalType": "struct NFTMarket.MarketItem[]",
          "name": "",
          "type": "tuple[]"
        }
      ],
      "stateMutability": "view",
      "type": "function",
      "constant": true
    },
    {
      "inputs": [
        {
          "internalType": "uint256",
          "name": "_itemId",
          "type": "uint256"
        }
      ],
      "name": "itemPriceWithFee",
      "outputs": [
        {
          "internalType": "uint256",
          "name": "",
          "type": "uint256"
        }
      ],
      "stateMutability": "view",
      "type": "function",
      "constant": true
    }
  ],
  "bytecode": "0x608060405266038d7ea4c6800060015560056002553480156200002157600080fd5b5062000042620000366200004860201b60201c565b6200005060201b60201c565b62000114565b600033905090565b60008060009054906101000a900473ffffffffffffffffffffffffffffffffffffffff169050816000806101000a81548173ffffffffffffffffffffffffffffffffffffffff021916908373ffffffffffffffffffffffffffffffffffffffff1602179055508173ffffffffffffffffffffffffffffffffffffffff168173ffffffffffffffffffffffffffffffffffffffff167f8be0079c531659141344cd1fd0a4f28419497f9722a3daafe3b4186f6b6457e060405160405180910390a35050565b6124f280620001246000396000f3fe6080604052600436106100dd5760003560e01c8063875bf2681161007f578063a6e22b0211610059578063a6e22b0214610279578063be9af536146102a2578063c78f19f9146102be578063f2fde38b146102e9576100dd565b8063875bf268146101e65780638da5cb5b1461021157806391ecfb8e1461023c576100dd565b80632e1a7d4d116100bb5780632e1a7d4d1461016157806358eb2df51461018a578063715018a6146101a65780637c726b69146101bd576100dd565b80630ccf2156146100e257806311acf2861461010d57806326b825d214610138575b600080fd5b3480156100ee57600080fd5b506100f7610312565b6040516101049190611ef7565b60405180910390f35b34801561011957600080fd5b5061012261031c565b60405161012f9190611df5565b60405180910390f35b34801561014457600080fd5b5061015f600480360381019061015a9190611aeb565b610597565b005b34801561016d57600080fd5b5061018860048036038101906101839190611aeb565b61061d565b005b6101a4600480360381019061019f9190611a6b565b610733565b005b3480156101b257600080fd5b506101bb610c18565b005b3480156101c957600080fd5b506101e460048036038101906101df9190611aeb565b610ca0565b005b3480156101f257600080fd5b506101fb610d26565b6040516102089190611df5565b60405180910390f35b34801561021d57600080fd5b50610226610ec2565b6040516102339190611d7a565b60405180910390f35b34801561024857600080fd5b50610263600480360381019061025e9190611aeb565b610eeb565b6040516102709190611ef7565b60405180910390f35b34801561028557600080fd5b506102a0600480360381019061029b9190611aeb565b611095565b005b6102bc60048036038101906102b79190611aeb565b611255565b005b3480156102ca57600080fd5b506102d361176d565b6040516102e09190611ef7565b60405180910390f35b3480156102f557600080fd5b50610310600480360381019061030b9190611a11565b611777565b005b6000600254905090565b60606000600554600454600354610333919061211b565b61033d919061211b565b905060008167ffffffffffffffff81111561035b5761035a61228c565b5b60405190808252806020026020018201604052801561039457816020015b61038161193b565b8152602001906001900390816103795790505b5090506000805b60035481101561058d576001600682815481106103bb576103ba61225d565b5b906000526020600020906006020160050160149054906101000a900460ff1660ff16141561057a57600681815481106103f7576103f661225d565b5b90600052602060002090600602016040518060e00160405290816000820154815260200160018201548152602001600282015481526020016003820160009054906101000a900473ffffffffffffffffffffffffffffffffffffffff1673ffffffffffffffffffffffffffffffffffffffff1673ffffffffffffffffffffffffffffffffffffffff1681526020016004820160009054906101000a900473ffffffffffffffffffffffffffffffffffffffff1673ffffffffffffffffffffffffffffffffffffffff1673ffffffffffffffffffffffffffffffffffffffff1681526020016005820160009054906101000a900473ffffffffffffffffffffffffffffffffffffffff1673ffffffffffffffffffffffffffffffffffffffff1673ffffffffffffffffffffffffffffffffffffffff1681526020016005820160149054906101000a900460ff1660ff1660ff16815250508383815181106105605761055f61225d565b5b60200260200101819052508180610576906121b6565b9250505b8080610585906121b6565b91505061039b565b5081935050505090565b61059f61186f565b73ffffffffffffffffffffffffffffffffffffffff166105bd610ec2565b73ffffffffffffffffffffffffffffffffffffffff1614610613576040517f08c379a000000000000000000000000000000000000000000000000000000000815260040161060a90611eb7565b60405180910390fd5b8060028190555050565b61062561186f565b73ffffffffffffffffffffffffffffffffffffffff16610643610ec2565b73ffffffffffffffffffffffffffffffffffffffff1614610699576040517f08c379a000000000000000000000000000000000000000000000000000000000815260040161069090611eb7565b60405180910390fd5b804710156106dc576040517f08c379a00000000000000000000000000000000000000000000000000000000081526004016106d390611e77565b60405180910390fd5b60006106e6610ec2565b90508073ffffffffffffffffffffffffffffffffffffffff166108fc839081150290604051600060405180830381858888f1935050505015801561072e573d6000803e3d6000fd5b505050565b346001541461074157600080fd5b600760008473ffffffffffffffffffffffffffffffffffffffff1673ffffffffffffffffffffffffffffffffffffffff168152602001908152602001600020600083815260200190815260200160002060009054906101000a900460ff16156107df576040517f08c379a00000000000000000000000000000000000000000000000000000000081526004016107d690611e97565b60405180910390fd5b600081116107ec57600080fd5b600083905060008173ffffffffffffffffffffffffffffffffffffffff16636352211e856040518263ffffffff1660e01b815260040161082c9190611ef7565b60206040518083038186803b15801561084457600080fd5b505afa158015610858573d6000803e3d6000fd5b505050506040513d601f19601f8201168201806040525081019061087c9190611a3e565b90503373ffffffffffffffffffffffffffffffffffffffff168173ffffffffffffffffffffffffffffffffffffffff16146108b657600080fd5b8173ffffffffffffffffffffffffffffffffffffffff1663e985e9c533306040518363ffffffff1660e01b81526004016108f1929190611d95565b60206040518083038186803b15801561090957600080fd5b505afa15801561091d573d6000803e3d6000fd5b505050506040513d601f19601f820116820180604052508101906109419190611abe565b610980576040517f08c379a000000000000000000000000000000000000000000000000000000000815260040161097790611e37565b60405180910390fd5b6001600760008773ffffffffffffffffffffffffffffffffffffffff1673ffffffffffffffffffffffffffffffffffffffff168152602001908152602001600020600086815260200190815260200160002060006101000a81548160ff02191690831515021790555060066040518060e0016040528060035481526020018681526020018581526020018773ffffffffffffffffffffffffffffffffffffffff1681526020013373ffffffffffffffffffffffffffffffffffffffff168152602001600073ffffffffffffffffffffffffffffffffffffffff168152602001600160ff16815250908060018154018082558091505060019003906000526020600020906006020160009091909190915060008201518160000155602082015181600101556040820151816002015560608201518160030160006101000a81548173ffffffffffffffffffffffffffffffffffffffff021916908373ffffffffffffffffffffffffffffffffffffffff16021790555060808201518160040160006101000a81548173ffffffffffffffffffffffffffffffffffffffff021916908373ffffffffffffffffffffffffffffffffffffffff16021790555060a08201518160050160006101000a81548173ffffffffffffffffffffffffffffffffffffffff021916908373ffffffffffffffffffffffffffffffffffffffff16021790555060c08201518160050160146101000a81548160ff021916908360ff160217905550505060036000815480929190610bb9906121b6565b91905055507fca288a78b40465e0849c18aea120da4b253ff730a0164003664442c27253dca06001600354610bee919061211b565b8686863360006001604051610c099796959493929190611f12565b60405180910390a15050505050565b610c2061186f565b73ffffffffffffffffffffffffffffffffffffffff16610c3e610ec2565b73ffffffffffffffffffffffffffffffffffffffff1614610c94576040517f08c379a0000000000000000000000000000000000000000000000000000000008152600401610c8b90611eb7565b60405180910390fd5b610c9e6000611877565b565b610ca861186f565b73ffffffffffffffffffffffffffffffffffffffff16610cc6610ec2565b73ffffffffffffffffffffffffffffffffffffffff1614610d1c576040517f08c379a0000000000000000000000000000000000000000000000000000000008152600401610d1390611eb7565b60405180910390fd5b8060018190555050565b60606006805480602002602001604051908101604052809291908181526020016000905b82821015610eb957838290600052602060002090600602016040518060e00160405290816000820154815260200160018201548152602001600282015481526020016003820160009054906101000a900473ffffffffffffffffffffffffffffffffffffffff1673ffffffffffffffffffffffffffffffffffffffff1673ffffffffffffffffffffffffffffffffffffffff1681526020016004820160009054906101000a900473ffffffffffffffffffffffffffffffffffffffff1673ffffffffffffffffffffffffffffffffffffffff1673ffffffffffffffffffffffffffffffffffffffff1681526020016005820160009054906101000a900473ffffffffffffffffffffffffffffffffffffffff1673ffffffffffffffffffffffffffffffffffffffff1673ffffffffffffffffffffffffffffffffffffffff1681526020016005820160149054906101000a900460ff1660ff1660ff168152505081526020019060010190610d4a565b50505050905090565b60008060009054906101000a900473ffffffffffffffffffffffffffffffffffffffff16905090565b60008060068381548110610f0257610f0161225d565b5b90600052602060002090600602016040518060e00160405290816000820154815260200160018201548152602001600282015481526020016003820160009054906101000a900473ffffffffffffffffffffffffffffffffffffffff1673ffffffffffffffffffffffffffffffffffffffff1673ffffffffffffffffffffffffffffffffffffffff1681526020016004820160009054906101000a900473ffffffffffffffffffffffffffffffffffffffff1673ffffffffffffffffffffffffffffffffffffffff1673ffffffffffffffffffffffffffffffffffffffff1681526020016005820160009054906101000a900473ffffffffffffffffffffffffffffffffffffffff1673ffffffffffffffffffffffffffffffffffffffff1673ffffffffffffffffffffffffffffffffffffffff1681526020016005820160149054906101000a900460ff1660ff1660ff1681525050905060006064600254836040015161107091906120c1565b61107a9190612090565b905081604001518161108c919061203a565b92505050919050565b6000600682815481106110ab576110aa61225d565b5b906000526020600020906006020190503373ffffffffffffffffffffffffffffffffffffffff168160040160009054906101000a900473ffffffffffffffffffffffffffffffffffffffff1673ffffffffffffffffffffffffffffffffffffffff16148061114b57503373ffffffffffffffffffffffffffffffffffffffff16611133610ec2565b73ffffffffffffffffffffffffffffffffffffffff16145b61118a576040517f08c379a000000000000000000000000000000000000000000000000000000000815260040161118190611ed7565b60405180910390fd5b6000600760008360030160009054906101000a900473ffffffffffffffffffffffffffffffffffffffff1673ffffffffffffffffffffffffffffffffffffffff1673ffffffffffffffffffffffffffffffffffffffff16815260200190815260200160002060008360010154815260200190815260200160002060006101000a81548160ff0219169083151502179055506005600081548092919061122e906121b6565b919050555060008160050160146101000a81548160ff021916908360ff1602179055505050565b600061126082610eeb565b90503481111561126f57600080fd5b6000600683815481106112855761128461225d565b5b9060005260206000209060060201905060018160050160149054906101000a900460ff1660ff16146112ec576040517f08c379a00000000000000000000000000000000000000000000000000000000081526004016112e390611e17565b60405180910390fd5b600082346112fa919061211b565b905060008260030160009054906101000a900473ffffffffffffffffffffffffffffffffffffffff1690508073ffffffffffffffffffffffffffffffffffffffff16636352211e84600101546040518263ffffffff1660e01b81526004016113629190611ef7565b60206040518083038186803b15801561137a57600080fd5b505afa15801561138e573d6000803e3d6000fd5b505050506040513d601f19601f820116820180604052508101906113b29190611a3e565b73ffffffffffffffffffffffffffffffffffffffff168360040160009054906101000a900473ffffffffffffffffffffffffffffffffffffffff1673ffffffffffffffffffffffffffffffffffffffff1614611443576040517f08c379a000000000000000000000000000000000000000000000000000000000815260040161143a90611e17565b60405180910390fd5b8073ffffffffffffffffffffffffffffffffffffffff166323b872dd8460040160009054906101000a900473ffffffffffffffffffffffffffffffffffffffff163386600101546040518463ffffffff1660e01b81526004016114a893929190611dbe565b600060405180830381600087803b1580156114c257600080fd5b505af11580156114d6573d6000803e3d6000fd5b505050506000600760008560030160009054906101000a900473ffffffffffffffffffffffffffffffffffffffff1673ffffffffffffffffffffffffffffffffffffffff1673ffffffffffffffffffffffffffffffffffffffff16815260200190815260200160002060008560010154815260200190815260200160002060006101000a81548160ff021916908315150217905550338360050160006101000a81548173ffffffffffffffffffffffffffffffffffffffff021916908373ffffffffffffffffffffffffffffffffffffffff16021790555060028360050160146101000a81548160ff021916908360ff160217905550600460008154809291906115df906121b6565b91905055508260040160009054906101000a900473ffffffffffffffffffffffffffffffffffffffff1673ffffffffffffffffffffffffffffffffffffffff166108fc84600201549081150290604051600060405180830381858888f19350505050158015611652573d6000803e3d6000fd5b503373ffffffffffffffffffffffffffffffffffffffff166108fc839081150290604051600060405180830381858888f19350505050158015611699573d6000803e3d6000fd5b507fca288a78b40465e0849c18aea120da4b253ff730a0164003664442c27253dca083600001548460030160009054906101000a900473ffffffffffffffffffffffffffffffffffffffff16856001015486600201548760040160009054906101000a900473ffffffffffffffffffffffffffffffffffffffff168860050160009054906101000a900473ffffffffffffffffffffffffffffffffffffffff168960050160149054906101000a900460ff1660405161175e9796959493929190611f81565b60405180910390a15050505050565b6000600154905090565b61177f61186f565b73ffffffffffffffffffffffffffffffffffffffff1661179d610ec2565b73ffffffffffffffffffffffffffffffffffffffff16146117f3576040517f08c379a00000000000000000000000000000000000000000000000000000000081526004016117ea90611eb7565b60405180910390fd5b600073ffffffffffffffffffffffffffffffffffffffff168173ffffffffffffffffffffffffffffffffffffffff161415611863576040517f08c379a000000000000000000000000000000000000000000000000000000000815260040161185a90611e57565b60405180910390fd5b61186c81611877565b50565b600033905090565b60008060009054906101000a900473ffffffffffffffffffffffffffffffffffffffff169050816000806101000a81548173ffffffffffffffffffffffffffffffffffffffff021916908373ffffffffffffffffffffffffffffffffffffffff1602179055508173ffffffffffffffffffffffffffffffffffffffff168173ffffffffffffffffffffffffffffffffffffffff167f8be0079c531659141344cd1fd0a4f28419497f9722a3daafe3b4186f6b6457e060405160405180910390a35050565b6040518060e00160405280600081526020016000815260200160008152602001600073ffffffffffffffffffffffffffffffffffffffff168152602001600073ffffffffffffffffffffffffffffffffffffffff168152602001600073ffffffffffffffffffffffffffffffffffffffff168152602001600060ff1681525090565b6000813590506119cc81612477565b92915050565b6000815190506119e181612477565b92915050565b6000815190506119f68161248e565b92915050565b600081359050611a0b816124a5565b92915050565b600060208284031215611a2757611a266122bb565b5b6000611a35848285016119bd565b91505092915050565b600060208284031215611a5457611a536122bb565b5b6000611a62848285016119d2565b91505092915050565b600080600060608486031215611a8457611a836122bb565b5b6000611a92868287016119bd565b9350506020611aa3868287016119fc565b9250506040611ab4868287016119fc565b9150509250925092565b600060208284031215611ad457611ad36122bb565b5b6000611ae2848285016119e7565b91505092915050565b600060208284031215611b0157611b006122bb565b5b6000611b0f848285016119fc565b91505092915050565b6000611b248383611cb0565b60e08301905092915050565b611b398161214f565b82525050565b611b488161214f565b82525050565b6000611b5982612000565b611b638185612018565b9350611b6e83611ff0565b8060005b83811015611b9f578151611b868882611b18565b9750611b918361200b565b925050600181019050611b72565b5085935050505092915050565b611bb5816121a4565b82525050565b6000611bc8601b83612029565b9150611bd3826122c0565b602082019050919050565b6000611beb601783612029565b9150611bf6826122e9565b602082019050919050565b6000611c0e602683612029565b9150611c1982612312565b604082019050919050565b6000611c31602583612029565b9150611c3c82612361565b604082019050919050565b6000611c54602883612029565b9150611c5f826123b0565b604082019050919050565b6000611c77602083612029565b9150611c82826123ff565b602082019050919050565b6000611c9a602883612029565b9150611ca582612428565b604082019050919050565b60e082016000820151611cc66000850182611d3e565b506020820151611cd96020850182611d3e565b506040820151611cec6040850182611d3e565b506060820151611cff6060850182611b30565b506080820151611d126080850182611b30565b5060a0820151611d2560a0850182611b30565b5060c0820151611d3860c0850182611d5c565b50505050565b611d478161218d565b82525050565b611d568161218d565b82525050565b611d6581612197565b82525050565b611d7481612197565b82525050565b6000602082019050611d8f6000830184611b3f565b92915050565b6000604082019050611daa6000830185611b3f565b611db76020830184611b3f565b9392505050565b6000606082019050611dd36000830186611b3f565b611de06020830185611b3f565b611ded6040830184611d4d565b949350505050565b60006020820190508181036000830152611e0f8184611b4e565b905092915050565b60006020820190508181036000830152611e3081611bbb565b9050919050565b60006020820190508181036000830152611e5081611bde565b9050919050565b60006020820190508181036000830152611e7081611c01565b9050919050565b60006020820190508181036000830152611e9081611c24565b9050919050565b60006020820190508181036000830152611eb081611c47565b9050919050565b60006020820190508181036000830152611ed081611c6a565b9050919050565b60006020820190508181036000830152611ef081611c8d565b9050919050565b6000602082019050611f0c6000830184611d4d565b92915050565b600060e082019050611f27600083018a611d4d565b611f346020830189611b3f565b611f416040830188611d4d565b611f4e6060830187611d4d565b611f5b6080830186611b3f565b611f6860a0830185611b3f565b611f7560c0830184611bac565b98975050505050505050565b600060e082019050611f96600083018a611d4d565b611fa36020830189611b3f565b611fb06040830188611d4d565b611fbd6060830187611d4d565b611fca6080830186611b3f565b611fd760a0830185611b3f565b611fe460c0830184611d6b565b98975050505050505050565b6000819050602082019050919050565b600081519050919050565b6000602082019050919050565b600082825260208201905092915050565b600082825260208201905092915050565b60006120458261218d565b91506120508361218d565b9250827fffffffffffffffffffffffffffffffffffffffffffffffffffffffffffffffff03821115612085576120846121ff565b5b828201905092915050565b600061209b8261218d565b91506120a68361218d565b9250826120b6576120b561222e565b5b828204905092915050565b60006120cc8261218d565b91506120d78361218d565b9250817fffffffffffffffffffffffffffffffffffffffffffffffffffffffffffffffff04831182151516156121105761210f6121ff565b5b828202905092915050565b60006121268261218d565b91506121318361218d565b925082821015612144576121436121ff565b5b828203905092915050565b600061215a8261216d565b9050919050565b60008115159050919050565b600073ffffffffffffffffffffffffffffffffffffffff82169050919050565b6000819050919050565b600060ff82169050919050565b60006121af82612197565b9050919050565b60006121c18261218d565b91507fffffffffffffffffffffffffffffffffffffffffffffffffffffffffffffffff8214156121f4576121f36121ff565b5b600182019050919050565b7f4e487b7100000000000000000000000000000000000000000000000000000000600052601160045260246000fd5b7f4e487b7100000000000000000000000000000000000000000000000000000000600052601260045260246000fd5b7f4e487b7100000000000000000000000000000000000000000000000000000000600052603260045260246000fd5b7f4e487b7100000000000000000000000000000000000000000000000000000000600052604160045260246000fd5b600080fd5b7f5468697320546f6b656e206973206e6f7420617661696c61626c650000000000600082015250565b7f646f65736e27742068617665205065726d697373696f6e000000000000000000600082015250565b7f4f776e61626c653a206e6577206f776e657220697320746865207a65726f206160008201527f6464726573730000000000000000000000000000000000000000000000000000602082015250565b7f62616c616e6365206973206c657373207468616e20726571756573746564206160008201527f6d6f756e74000000000000000000000000000000000000000000000000000000602082015250565b7f5468697320746f6b656e20697320616c7265616479206c6f6361746564206f6e60008201527f206d61726b65742e000000000000000000000000000000000000000000000000602082015250565b7f4f776e61626c653a2063616c6c6572206973206e6f7420746865206f776e6572600082015250565b7f4f6e6c79204974656d27732073656c6c65722063616e2063616e63656c206d6160008201527f726b65744974656d000000000000000000000000000000000000000000000000602082015250565b6124808161214f565b811461248b57600080fd5b50565b61249781612161565b81146124a257600080fd5b50565b6124ae8161218d565b81146124b957600080fd5b5056fea2646970667358221220ed2f3eed53d66a71f4b2a68f5fcd7759a4f7935001e61588da9d2735a741b94f64736f6c63430008070033",
  "immutableReferences": {},
  "source": "// SPDX-License-Identifier: MIT\npragma solidity ^0.8.7;\n\nimport \"@openzeppelin/contracts/access/Ownable.sol\";\nimport \"@openzeppelin/contracts/token/ERC721/IERC721.sol\";\n\ncontract NFTMarket is Ownable {\n  // 1. listingPrice    \n  uint256 private _listingPrice = 0.001 ether; //   ( )\n  uint256 private _marketFee = 5; //   % ( )\n\n  uint256 private _itemIds; // item id (Counting )\n  uint256 private _itemSoldcount;\n  uint256 private _itemCanceldCount;\n\n  event MarketItemChanged(\n    uint256 itemId,\n    address nftContract,\n    uint256 tokenId,\n    uint256 price,\n    address seller,\n    address buyer,\n    uint8 status\n  );\n\n\n  // MarketItem  (item1 -  )\n  struct MarketItem{\n    uint256 itemId;       // Market  id\n    uint256 tokenId;      // contract id\n    uint256 price;        // \n    address nftContract;  //  contract (ERC721 )\n    address seller;       // \n    address buyer;        // \n    uint8 status;         //  (0: , 1: , 2:  )\n  }\n\n  MarketItem[] private _marketItems;\n  \n  //    mutex\n  mapping(address => mapping(uint256 => bool)) private _alreadyMarketItem; \n\n  function setListingPrice(uint256 price) external onlyOwner {\n    _listingPrice = price;\n  }\n  function listingPrice() external view returns (uint256){\n    return _listingPrice;\n  }\n\n  function setMarketFee(uint256 _fee) external onlyOwner{\n    _marketFee = _fee;\n  }\n  function marketFee() external view returns(uint256) {\n    return _marketFee;\n  }\n\n  // 2. withdraw  \n  function withdraw(uint256 _amount) external onlyOwner {\n    require(address(this).balance >= _amount, \"balance is less than requested amount\");\n    address payable owner = payable(owner());\n    owner.transfer(_amount);\n  }\n\n  /**\n    3.  \n     createMarketItem(address _nftContract, uint256 _tokenId, uint256 _price)  \n     -   \n     - listingPrice \n     - _price 0  .\n     - itemId, status marketItem    \n     -  .\n     -   Contract   .\n  */\n  function createMarketItem(address _nftContract, uint256 _tokenId, uint256 _price) external payable{\n    require(_listingPrice == msg.value);\n    //    ( : true,  x: false)\n    require(!_alreadyMarketItem[_nftContract][_tokenId], \"This token is already located on market.\");\n    \n    require(_price > 0);\n\n    //  Contract   . + owner \n    IERC721 nftContract = IERC721(_nftContract);\n\n    address nftOwner = nftContract.ownerOf(_tokenId);\n    require(nftOwner == msg.sender); //      \n    //  NFT Handling   \n    require(nftContract.isApprovedForAll(msg.sender, address(this)), \"doesn't have Permission\"); \n\n    //  \n    _alreadyMarketItem[_nftContract][_tokenId] = true;\n\n\n    _marketItems.push(MarketItem(_itemIds, _tokenId, _price, _nftContract, msg.sender, address(0), 1));\n    _itemIds++;\n\n\n    emit MarketItemChanged(_itemIds-1, _nftContract, _tokenId, _price, msg.sender, address(0), 1);\n  }\n\n\n  // 4.  \n  /**\n    createMarketSale(uint256 _itemId)\n    -   \n    -  token  + token (_marketFee)   .\n    - token    .\n    - (token +  )     .\n    -  NFT Contract  .\n    - itemSoldCount \n   */\n  function createMarketSale(uint256 _itemId) external payable {\n    //  token +    \n    uint256 priceWithFee = itemPriceWithFee(_itemId);\n    require(priceWithFee <= msg.value);\n    MarketItem storage targetItem = _marketItems[_itemId];\n\n    //   \n    require(targetItem.status==1, \"This Token is not available\"); \n\n    //  \n    uint256 cashback = msg.value - priceWithFee;\n\n    //  \n    IERC721 nftContract = IERC721(targetItem.nftContract);\n    require(targetItem.seller == nftContract.ownerOf(targetItem.tokenId), \"This Token is not available\");\n\n    //  NFT Contract TX \n    nftContract.transferFrom(targetItem.seller, msg.sender, targetItem.tokenId);\n    \n    // MarketItem  \n    _alreadyMarketItem[targetItem.nftContract][targetItem.tokenId] = false;\n    targetItem.buyer = msg.sender;\n    targetItem.status = 2;\n    _itemSoldcount++;\n\n    //    .\n    payable(targetItem.seller).transfer(targetItem.price);\n    payable(msg.sender).transfer(cashback);\n\n    emit MarketItemChanged(\n      targetItem.itemId,\n      targetItem.nftContract,\n      targetItem.tokenId,\n      targetItem.price,\n      targetItem.seller,\n      targetItem.buyer,\n      targetItem.status\n    );\n  }\n\n  // 5.    \n  function cancelMarketItem(uint256 itemId) external {\n    // (1) itemId  MarketItem   \n    // storage(  O) vs memory(  X)\n    MarketItem storage targetItem = _marketItems[itemId];\n    // (2)  MarketItem    \n    require((targetItem.seller == msg.sender) || (owner() == msg.sender), \"Only Item's seller can cancel marketItem\");\n    // (3) _alreadyMarketItem \n    _alreadyMarketItem[targetItem.nftContract][targetItem.tokenId] = false;\n    // (4) uint _itemCanceldCount  \n    _itemCanceldCount++; \n    // (5)  MarketItem   status \n    targetItem.status = 0;\n  }\n\n  // 6.   () external view\n  // -  ( ) marketItem   return  \n  // -       .\n  function fetchActiveMarketItems() external view returns(MarketItem[] memory) {\n    uint256 activeItemCount = _itemIds - _itemSoldcount - _itemCanceldCount;\n    \n    MarketItem[] memory activeMarketItems = new MarketItem[](activeItemCount); // return \n\n    \n    uint256 itemIdx = 0;\n    for (uint256 i=0; i<_itemIds; i++){\n      if (_marketItems[i].status == 1){\n        activeMarketItems[itemIdx] = _marketItems[i];\n        itemIdx++;\n      }\n    }\n    return activeMarketItems;\n  }\n\n  //   \n  function marketItems() public view returns(MarketItem[] memory){\n    return _marketItems;\n  }\n\n\n  function itemPriceWithFee(uint256 _itemId) public view returns(uint256){\n    MarketItem memory marketItem = _marketItems[_itemId];\n    uint256 fee = marketItem.price * _marketFee / 100;\n    return fee + marketItem.price;\n  }\n}\n",
  "sourcePath": "C:\\Users\\user\\jeonnam_blockchain\\nft-new\\contracts\\NFTMarket.sol",
  "compiler": {
    "name": "solc",
    "version": "0.8.7+commit.e28d00a7.Emscripten.clang"
  },
  "schemaVersion": "3.4.2",
  "updatedAt": "2021-09-02T11:08:41.113Z",
  "networkType": "ethereum",
  "devdoc": {
    "kind": "dev",
    "methods": {
      "owner()": {
        "details": "Returns the address of the current owner."
      },
      "renounceOwnership()": {
        "details": "Leaves the contract without owner. It will not be possible to call `onlyOwner` functions anymore. Can only be called by the current owner. NOTE: Renouncing ownership will leave the contract without an owner, thereby removing any functionality that is only available to the owner."
      },
      "transferOwnership(address)": {
        "details": "Transfers ownership of the contract to a new account (`newOwner`). Can only be called by the current owner."
      }
    },
    "version": 1
  },
  "userdoc": {
    "kind": "user",
    "methods": {
      "createMarketItem(address,uint256,uint256)": {
        "notice": "3.   createMarketItem(address _nftContract, uint256 _tokenId, uint256 _price)   -    - listingPrice  - _price 0  . - itemId, status marketItem     -  . -   Contract   ."
      },
      "createMarketSale(uint256)": {
        "notice": "createMarketSale(uint256 _itemId) -    -  token  + token (_marketFee)   . - token    . - (token +  )     . -  NFT Contract  . - itemSoldCount "
      }
    },
    "version": 1
  }
}