{
  "contractName": "NFTMarket",
  "abi": [
    {
      "anonymous": false,
      "inputs": [
        {
          "indexed": false,
          "internalType": "uint256",
          "name": "itemId",
          "type": "uint256"
        },
        {
          "indexed": false,
          "internalType": "address",
          "name": "nftContract",
          "type": "address"
        },
        {
          "indexed": false,
          "internalType": "uint256",
          "name": "tokenId",
          "type": "uint256"
        },
        {
          "indexed": false,
          "internalType": "uint256",
          "name": "price",
          "type": "uint256"
        },
        {
          "indexed": false,
          "internalType": "address",
          "name": "seller",
          "type": "address"
        },
        {
          "indexed": false,
          "internalType": "address",
          "name": "buyer",
          "type": "address"
        },
        {
          "indexed": false,
          "internalType": "uint8",
          "name": "status",
          "type": "uint8"
        }
      ],
      "name": "MarketItemChanged",
      "type": "event"
    },
    {
      "anonymous": false,
      "inputs": [
        {
          "indexed": true,
          "internalType": "address",
          "name": "previousOwner",
          "type": "address"
        },
        {
          "indexed": true,
          "internalType": "address",
          "name": "newOwner",
          "type": "address"
        }
      ],
      "name": "OwnershipTransferred",
      "type": "event"
    },
    {
      "inputs": [],
      "name": "owner",
      "outputs": [
        {
          "internalType": "address",
          "name": "",
          "type": "address"
        }
      ],
      "stateMutability": "view",
      "type": "function"
    },
    {
      "inputs": [],
      "name": "renounceOwnership",
      "outputs": [],
      "stateMutability": "nonpayable",
      "type": "function"
    },
    {
      "inputs": [
        {
          "internalType": "address",
          "name": "newOwner",
          "type": "address"
        }
      ],
      "name": "transferOwnership",
      "outputs": [],
      "stateMutability": "nonpayable",
      "type": "function"
    },
    {
      "inputs": [
        {
          "internalType": "uint256",
          "name": "price",
          "type": "uint256"
        }
      ],
      "name": "setListingPrice",
      "outputs": [],
      "stateMutability": "nonpayable",
      "type": "function"
    },
    {
      "inputs": [],
      "name": "listingPrice",
      "outputs": [
        {
          "internalType": "uint256",
          "name": "",
          "type": "uint256"
        }
      ],
      "stateMutability": "view",
      "type": "function"
    },
    {
      "inputs": [
        {
          "internalType": "uint256",
          "name": "_fee",
          "type": "uint256"
        }
      ],
      "name": "setMarketFee",
      "outputs": [],
      "stateMutability": "nonpayable",
      "type": "function"
    },
    {
      "inputs": [],
      "name": "marketFee",
      "outputs": [
        {
          "internalType": "uint256",
          "name": "",
          "type": "uint256"
        }
      ],
      "stateMutability": "view",
      "type": "function"
    },
    {
      "inputs": [
        {
          "internalType": "uint256",
          "name": "_amount",
          "type": "uint256"
        }
      ],
      "name": "withdraw",
      "outputs": [],
      "stateMutability": "nonpayable",
      "type": "function"
    },
    {
      "inputs": [
        {
          "internalType": "address",
          "name": "_nftContract",
          "type": "address"
        },
        {
          "internalType": "uint256",
          "name": "_tokenId",
          "type": "uint256"
        },
        {
          "internalType": "uint256",
          "name": "_price",
          "type": "uint256"
        }
      ],
      "name": "createMarketItem",
      "outputs": [],
      "stateMutability": "payable",
      "type": "function"
    },
    {
      "inputs": [
        {
          "internalType": "uint256",
          "name": "_itemId",
          "type": "uint256"
        }
      ],
      "name": "createMarketSale",
      "outputs": [],
      "stateMutability": "payable",
      "type": "function"
    },
    {
      "inputs": [
        {
          "internalType": "uint256",
          "name": "_itemId",
          "type": "uint256"
        }
      ],
      "name": "itemPriceWithFee",
      "outputs": [
        {
          "internalType": "uint256",
          "name": "",
          "type": "uint256"
        }
      ],
      "stateMutability": "view",
      "type": "function"
    }
  ],
  "bytecode": "0x608060405266038d7ea4c68000600155600560025534801561002057600080fd5b5061003d61003261004260201b60201c565b61004a60201b60201c565b61010e565b600033905090565b60008060009054906101000a900473ffffffffffffffffffffffffffffffffffffffff169050816000806101000a81548173ffffffffffffffffffffffffffffffffffffffff021916908373ffffffffffffffffffffffffffffffffffffffff1602179055508173ffffffffffffffffffffffffffffffffffffffff168173ffffffffffffffffffffffffffffffffffffffff167f8be0079c531659141344cd1fd0a4f28419497f9722a3daafe3b4186f6b6457e060405160405180910390a35050565b611b8c8061011d6000396000f3fe60806040526004361061009c5760003560e01c80637c726b69116100645780637c726b69146101515780638da5cb5b1461017a57806391ecfb8e146101a5578063be9af536146101e2578063c78f19f9146101fe578063f2fde38b146102295761009c565b80630ccf2156146100a157806326b825d2146100cc5780632e1a7d4d146100f557806358eb2df51461011e578063715018a61461013a575b600080fd5b3480156100ad57600080fd5b506100b6610252565b6040516100c39190611648565b60405180910390f35b3480156100d857600080fd5b506100f360048036038101906100ee91906113d2565b61025c565b005b34801561010157600080fd5b5061011c600480360381019061011791906113d2565b6102e2565b005b61013860048036038101906101339190611352565b6103f8565b005b34801561014657600080fd5b5061014f6108dd565b005b34801561015d57600080fd5b50610178600480360381019061017391906113d2565b610965565b005b34801561018657600080fd5b5061018f6109eb565b60405161019c919061150d565b60405180910390f35b3480156101b157600080fd5b506101cc60048036038101906101c791906113d2565b610a14565b6040516101d99190611648565b60405180910390f35b6101fc60048036038101906101f791906113d2565b610bbe565b005b34801561020a57600080fd5b506102136110d6565b6040516102209190611648565b60405180910390f35b34801561023557600080fd5b50610250600480360381019061024b91906112f8565b6110e0565b005b6000600254905090565b6102646111d8565b73ffffffffffffffffffffffffffffffffffffffff166102826109eb565b73ffffffffffffffffffffffffffffffffffffffff16146102d8576040517f08c379a00000000000000000000000000000000000000000000000000000000081526004016102cf90611628565b60405180910390fd5b8060028190555050565b6102ea6111d8565b73ffffffffffffffffffffffffffffffffffffffff166103086109eb565b73ffffffffffffffffffffffffffffffffffffffff161461035e576040517f08c379a000000000000000000000000000000000000000000000000000000000815260040161035590611628565b60405180910390fd5b804710156103a1576040517f08c379a0000000000000000000000000000000000000000000000000000000008152600401610398906115e8565b60405180910390fd5b60006103ab6109eb565b90508073ffffffffffffffffffffffffffffffffffffffff166108fc839081150290604051600060405180830381858888f193505050501580156103f3573d6000803e3d6000fd5b505050565b346001541461040657600080fd5b600660008473ffffffffffffffffffffffffffffffffffffffff1673ffffffffffffffffffffffffffffffffffffffff168152602001908152602001600020600083815260200190815260200160002060009054906101000a900460ff16156104a4576040517f08c379a000000000000000000000000000000000000000000000000000000000815260040161049b90611608565b60405180910390fd5b600081116104b157600080fd5b600083905060008173ffffffffffffffffffffffffffffffffffffffff16636352211e856040518263ffffffff1660e01b81526004016104f19190611648565b60206040518083038186803b15801561050957600080fd5b505afa15801561051d573d6000803e3d6000fd5b505050506040513d601f19601f820116820180604052508101906105419190611325565b90503373ffffffffffffffffffffffffffffffffffffffff168173ffffffffffffffffffffffffffffffffffffffff161461057b57600080fd5b8173ffffffffffffffffffffffffffffffffffffffff1663e985e9c533306040518363ffffffff1660e01b81526004016105b6929190611528565b60206040518083038186803b1580156105ce57600080fd5b505afa1580156105e2573d6000803e3d6000fd5b505050506040513d601f19601f8201168201806040525081019061060691906113a5565b610645576040517f08c379a000000000000000000000000000000000000000000000000000000000815260040161063c906115a8565b60405180910390fd5b6001600660008773ffffffffffffffffffffffffffffffffffffffff1673ffffffffffffffffffffffffffffffffffffffff168152602001908152602001600020600086815260200190815260200160002060006101000a81548160ff02191690831515021790555060056040518060e0016040528060035481526020018681526020018581526020018773ffffffffffffffffffffffffffffffffffffffff1681526020013373ffffffffffffffffffffffffffffffffffffffff168152602001600073ffffffffffffffffffffffffffffffffffffffff168152602001600160ff16815250908060018154018082558091505060019003906000526020600020906006020160009091909190915060008201518160000155602082015181600101556040820151816002015560608201518160030160006101000a81548173ffffffffffffffffffffffffffffffffffffffff021916908373ffffffffffffffffffffffffffffffffffffffff16021790555060808201518160040160006101000a81548173ffffffffffffffffffffffffffffffffffffffff021916908373ffffffffffffffffffffffffffffffffffffffff16021790555060a08201518160050160006101000a81548173ffffffffffffffffffffffffffffffffffffffff021916908373ffffffffffffffffffffffffffffffffffffffff16021790555060c08201518160050160146101000a81548160ff021916908360ff16021790555050506003600081548092919061087e906118ce565b91905055507fca288a78b40465e0849c18aea120da4b253ff730a0164003664442c27253dca060016003546108b39190611833565b86868633600060016040516108ce9796959493929190611663565b60405180910390a15050505050565b6108e56111d8565b73ffffffffffffffffffffffffffffffffffffffff166109036109eb565b73ffffffffffffffffffffffffffffffffffffffff1614610959576040517f08c379a000000000000000000000000000000000000000000000000000000000815260040161095090611628565b60405180910390fd5b61096360006111e0565b565b61096d6111d8565b73ffffffffffffffffffffffffffffffffffffffff1661098b6109eb565b73ffffffffffffffffffffffffffffffffffffffff16146109e1576040517f08c379a00000000000000000000000000000000000000000000000000000000081526004016109d890611628565b60405180910390fd5b8060018190555050565b60008060009054906101000a900473ffffffffffffffffffffffffffffffffffffffff16905090565b60008060058381548110610a2b57610a2a611975565b5b90600052602060002090600602016040518060e00160405290816000820154815260200160018201548152602001600282015481526020016003820160009054906101000a900473ffffffffffffffffffffffffffffffffffffffff1673ffffffffffffffffffffffffffffffffffffffff1673ffffffffffffffffffffffffffffffffffffffff1681526020016004820160009054906101000a900473ffffffffffffffffffffffffffffffffffffffff1673ffffffffffffffffffffffffffffffffffffffff1673ffffffffffffffffffffffffffffffffffffffff1681526020016005820160009054906101000a900473ffffffffffffffffffffffffffffffffffffffff1673ffffffffffffffffffffffffffffffffffffffff1673ffffffffffffffffffffffffffffffffffffffff1681526020016005820160149054906101000a900460ff1660ff1660ff16815250509050600060646002548360400151610b9991906117d9565b610ba391906117a8565b9050816040015181610bb59190611752565b92505050919050565b6000610bc982610a14565b905034811115610bd857600080fd5b600060058381548110610bee57610bed611975565b5b9060005260206000209060060201905060018160050160149054906101000a900460ff1660ff1614610c55576040517f08c379a0000000000000000000000000000000000000000000000000000000008152600401610c4c90611588565b60405180910390fd5b60008234610c639190611833565b905060008260030160009054906101000a900473ffffffffffffffffffffffffffffffffffffffff1690508073ffffffffffffffffffffffffffffffffffffffff16636352211e84600101546040518263ffffffff1660e01b8152600401610ccb9190611648565b60206040518083038186803b158015610ce357600080fd5b505afa158015610cf7573d6000803e3d6000fd5b505050506040513d601f19601f82011682018060405250810190610d1b9190611325565b73ffffffffffffffffffffffffffffffffffffffff168360040160009054906101000a900473ffffffffffffffffffffffffffffffffffffffff1673ffffffffffffffffffffffffffffffffffffffff1614610dac576040517f08c379a0000000000000000000000000000000000000000000000000000000008152600401610da390611588565b60405180910390fd5b8073ffffffffffffffffffffffffffffffffffffffff166323b872dd8460040160009054906101000a900473ffffffffffffffffffffffffffffffffffffffff163386600101546040518463ffffffff1660e01b8152600401610e1193929190611551565b600060405180830381600087803b158015610e2b57600080fd5b505af1158015610e3f573d6000803e3d6000fd5b505050506000600660008560030160009054906101000a900473ffffffffffffffffffffffffffffffffffffffff1673ffffffffffffffffffffffffffffffffffffffff1673ffffffffffffffffffffffffffffffffffffffff16815260200190815260200160002060008560010154815260200190815260200160002060006101000a81548160ff021916908315150217905550338360050160006101000a81548173ffffffffffffffffffffffffffffffffffffffff021916908373ffffffffffffffffffffffffffffffffffffffff16021790555060028360050160146101000a81548160ff021916908360ff16021790555060046000815480929190610f48906118ce565b91905055508260040160009054906101000a900473ffffffffffffffffffffffffffffffffffffffff1673ffffffffffffffffffffffffffffffffffffffff166108fc84600201549081150290604051600060405180830381858888f19350505050158015610fbb573d6000803e3d6000fd5b503373ffffffffffffffffffffffffffffffffffffffff166108fc839081150290604051600060405180830381858888f19350505050158015611002573d6000803e3d6000fd5b507fca288a78b40465e0849c18aea120da4b253ff730a0164003664442c27253dca083600001548460030160009054906101000a900473ffffffffffffffffffffffffffffffffffffffff16856001015486600201548760040160009054906101000a900473ffffffffffffffffffffffffffffffffffffffff168860050160009054906101000a900473ffffffffffffffffffffffffffffffffffffffff168960050160149054906101000a900460ff166040516110c797969594939291906116d2565b60405180910390a15050505050565b6000600154905090565b6110e86111d8565b73ffffffffffffffffffffffffffffffffffffffff166111066109eb565b73ffffffffffffffffffffffffffffffffffffffff161461115c576040517f08c379a000000000000000000000000000000000000000000000000000000000815260040161115390611628565b60405180910390fd5b600073ffffffffffffffffffffffffffffffffffffffff168173ffffffffffffffffffffffffffffffffffffffff1614156111cc576040517f08c379a00000000000000000000000000000000000000000000000000000000081526004016111c3906115c8565b60405180910390fd5b6111d5816111e0565b50565b600033905090565b60008060009054906101000a900473ffffffffffffffffffffffffffffffffffffffff169050816000806101000a81548173ffffffffffffffffffffffffffffffffffffffff021916908373ffffffffffffffffffffffffffffffffffffffff1602179055508173ffffffffffffffffffffffffffffffffffffffff168173ffffffffffffffffffffffffffffffffffffffff167f8be0079c531659141344cd1fd0a4f28419497f9722a3daafe3b4186f6b6457e060405160405180910390a35050565b6000813590506112b381611b11565b92915050565b6000815190506112c881611b11565b92915050565b6000815190506112dd81611b28565b92915050565b6000813590506112f281611b3f565b92915050565b60006020828403121561130e5761130d6119a4565b5b600061131c848285016112a4565b91505092915050565b60006020828403121561133b5761133a6119a4565b5b6000611349848285016112b9565b91505092915050565b60008060006060848603121561136b5761136a6119a4565b5b6000611379868287016112a4565b935050602061138a868287016112e3565b925050604061139b868287016112e3565b9150509250925092565b6000602082840312156113bb576113ba6119a4565b5b60006113c9848285016112ce565b91505092915050565b6000602082840312156113e8576113e76119a4565b5b60006113f6848285016112e3565b91505092915050565b61140881611867565b82525050565b611417816118bc565b82525050565b600061142a601b83611741565b9150611435826119a9565b602082019050919050565b600061144d601783611741565b9150611458826119d2565b602082019050919050565b6000611470602683611741565b915061147b826119fb565b604082019050919050565b6000611493602583611741565b915061149e82611a4a565b604082019050919050565b60006114b6602883611741565b91506114c182611a99565b604082019050919050565b60006114d9602083611741565b91506114e482611ae8565b602082019050919050565b6114f8816118a5565b82525050565b611507816118af565b82525050565b600060208201905061152260008301846113ff565b92915050565b600060408201905061153d60008301856113ff565b61154a60208301846113ff565b9392505050565b600060608201905061156660008301866113ff565b61157360208301856113ff565b61158060408301846114ef565b949350505050565b600060208201905081810360008301526115a18161141d565b9050919050565b600060208201905081810360008301526115c181611440565b9050919050565b600060208201905081810360008301526115e181611463565b9050919050565b6000602082019050818103600083015261160181611486565b9050919050565b60006020820190508181036000830152611621816114a9565b9050919050565b60006020820190508181036000830152611641816114cc565b9050919050565b600060208201905061165d60008301846114ef565b92915050565b600060e082019050611678600083018a6114ef565b61168560208301896113ff565b61169260408301886114ef565b61169f60608301876114ef565b6116ac60808301866113ff565b6116b960a08301856113ff565b6116c660c083018461140e565b98975050505050505050565b600060e0820190506116e7600083018a6114ef565b6116f460208301896113ff565b61170160408301886114ef565b61170e60608301876114ef565b61171b60808301866113ff565b61172860a08301856113ff565b61173560c08301846114fe565b98975050505050505050565b600082825260208201905092915050565b600061175d826118a5565b9150611768836118a5565b9250827fffffffffffffffffffffffffffffffffffffffffffffffffffffffffffffffff0382111561179d5761179c611917565b5b828201905092915050565b60006117b3826118a5565b91506117be836118a5565b9250826117ce576117cd611946565b5b828204905092915050565b60006117e4826118a5565b91506117ef836118a5565b9250817fffffffffffffffffffffffffffffffffffffffffffffffffffffffffffffffff048311821515161561182857611827611917565b5b828202905092915050565b600061183e826118a5565b9150611849836118a5565b92508282101561185c5761185b611917565b5b828203905092915050565b600061187282611885565b9050919050565b60008115159050919050565b600073ffffffffffffffffffffffffffffffffffffffff82169050919050565b6000819050919050565b600060ff82169050919050565b60006118c7826118af565b9050919050565b60006118d9826118a5565b91507fffffffffffffffffffffffffffffffffffffffffffffffffffffffffffffffff82141561190c5761190b611917565b5b600182019050919050565b7f4e487b7100000000000000000000000000000000000000000000000000000000600052601160045260246000fd5b7f4e487b7100000000000000000000000000000000000000000000000000000000600052601260045260246000fd5b7f4e487b7100000000000000000000000000000000000000000000000000000000600052603260045260246000fd5b600080fd5b7f5468697320546f6b656e206973206e6f7420617661696c61626c650000000000600082015250565b7f646f65736e27742068617665205065726d697373696f6e000000000000000000600082015250565b7f4f776e61626c653a206e6577206f776e657220697320746865207a65726f206160008201527f6464726573730000000000000000000000000000000000000000000000000000602082015250565b7f62616c616e6365206973206c657373207468616e20726571756573746564206160008201527f6d6f756e74000000000000000000000000000000000000000000000000000000602082015250565b7f5468697320746f6b656e20697320616c7265616479206c6f6361746564206f6e60008201527f206d61726b65742e000000000000000000000000000000000000000000000000602082015250565b7f4f776e61626c653a2063616c6c6572206973206e6f7420746865206f776e6572600082015250565b611b1a81611867565b8114611b2557600080fd5b50565b611b3181611879565b8114611b3c57600080fd5b50565b611b48816118a5565b8114611b5357600080fd5b5056fea26469706673582212209229aa3d74e8f36936b529b3e4076d950ac9454bd0ae67f93b50a6abf43d3c4e64736f6c63430008070033",
  "immutableReferences": {},
  "source": "// SPDX-License-Identifier: MIT\npragma solidity ^0.8.7;\n\nimport \"@openzeppelin/contracts/access/Ownable.sol\";\nimport \"@openzeppelin/contracts/token/ERC721/IERC721.sol\";\n\ncontract NFTMarket is Ownable {\n  // 1. listingPrice    \n  uint256 private _listingPrice = 0.001 ether; //   ( )\n  uint256 private _marketFee = 5; //   % ( )\n\n  uint256 private _itemIds; // item id (Counting )\n  uint256 private _itemSoldcount;\n\n  event MarketItemChanged(\n    uint256 itemId,\n    address nftContract,\n    uint256 tokenId,\n    uint256 price,\n    address seller,\n    address buyer,\n    uint8 status\n  );\n\n\n  // MarketItem  (item1 -  )\n  struct MarketItem{\n    uint256 itemId;       // Market  id\n    uint256 tokenId;      // contract id\n    uint256 price;        // \n    address nftContract;  //  contract (ERC721 )\n    address seller;       // \n    address buyer;        // \n    uint8 status;         //  (0: , 1: , 2:  )\n  }\n\n  MarketItem[] private _marketItems;\n  \n  //    mutex\n  mapping(address => mapping(uint256 => bool)) private _alreadyMarketItem; \n\n  function setListingPrice(uint256 price) external onlyOwner {\n    _listingPrice = price;\n  }\n  function listingPrice() external view returns (uint256){\n    return _listingPrice;\n  }\n\n  function setMarketFee(uint256 _fee) external onlyOwner{\n    _marketFee = _fee;\n  }\n  function marketFee() external view returns(uint256) {\n    return _marketFee;\n  }\n\n  // 2. withdraw  \n  function withdraw(uint256 _amount) external onlyOwner {\n    require(address(this).balance >= _amount, \"balance is less than requested amount\");\n    address payable owner = payable(owner());\n    owner.transfer(_amount);\n  }\n\n  /**\n    3.  \n     createMarketItem(address _nftContract, uint256 _tokenId, uint256 _price)  \n     -   \n     - listingPrice \n     - _price 0  .\n     - itemId, status marketItem    \n     -  .\n     -   Contract   .\n  */\n  function createMarketItem(address _nftContract, uint256 _tokenId, uint256 _price) external payable{\n    require(_listingPrice == msg.value);\n    //    ( : true,  x: false)\n    require(!_alreadyMarketItem[_nftContract][_tokenId], \"This token is already located on market.\");\n    \n    require(_price > 0);\n\n    //  Contract   . + owner \n    IERC721 nftContract = IERC721(_nftContract);\n\n    address nftOwner = nftContract.ownerOf(_tokenId);\n    require(nftOwner == msg.sender); //      \n    //  NFT Handling   \n    require(nftContract.isApprovedForAll(msg.sender, address(this)), \"doesn't have Permission\"); \n\n    //  \n    _alreadyMarketItem[_nftContract][_tokenId] = true;\n\n\n    _marketItems.push(MarketItem(_itemIds, _tokenId, _price, _nftContract, msg.sender, address(0), 1));\n    _itemIds++;\n\n\n    emit MarketItemChanged(_itemIds-1, _nftContract, _tokenId, _price, msg.sender, address(0), 1);\n  }\n\n\n  // 4.  \n  /**\n    createMarketSale(uint256 _itemId)\n    -   \n    -  token  + token (_marketFee)   .\n    - token    .\n    - (token +  )     .\n    -  NFT Contract  .\n    - itemSoldCount \n   */\n  function createMarketSale(uint256 _itemId) external payable {\n    //  token +    \n    uint256 priceWithFee = itemPriceWithFee(_itemId);\n    require(priceWithFee <= msg.value);\n    MarketItem storage targetItem = _marketItems[_itemId];\n\n    //   \n    require(targetItem.status==1, \"This Token is not available\"); \n\n    //  \n    uint256 cashback = msg.value - priceWithFee;\n\n    //  \n    IERC721 nftContract = IERC721(targetItem.nftContract);\n    require(targetItem.seller == nftContract.ownerOf(targetItem.tokenId), \"This Token is not available\");\n\n    //  NFT Contract TX \n    nftContract.transferFrom(targetItem.seller, msg.sender, targetItem.tokenId);\n    \n    // MarketItem  \n    _alreadyMarketItem[targetItem.nftContract][targetItem.tokenId] = false;\n    targetItem.buyer = msg.sender;\n    targetItem.status = 2;\n    _itemSoldcount++;\n\n    //    .\n    payable(targetItem.seller).transfer(targetItem.price);\n    payable(msg.sender).transfer(cashback);\n\n    \n/**\n\n  event MarketItemChanged(\n    uint256 itemId,\n    address nftContract,\n    uint256 tokenId,\n    uint256 price,\n    address seller,\n    address buyer,\n    uint8 status\n  ); */\n    emit MarketItemChanged(\n      targetItem.itemId,\n      targetItem.nftContract,\n      targetItem.tokenId,\n      targetItem.price,\n      targetItem.seller,\n      targetItem.buyer,\n      targetItem.status\n    ); \n  }\n\n  // 5.  \n\n  // 6.   () external view\n\n\n  function itemPriceWithFee(uint256 _itemId) public view returns(uint256){\n    MarketItem memory marketItem = _marketItems[_itemId];\n    uint256 fee = marketItem.price * _marketFee / 100;\n    return fee + marketItem.price;\n  }\n\n\n\n\n}\n",
  "sourcePath": "C:\\Users\\user\\jeonnam_blockchain\\nft-new\\contracts\\NFTMarket.sol",
  "compiler": {
    "name": "solc",
    "version": "0.8.7+commit.e28d00a7.Emscripten.clang"
  },
  "schemaVersion": "3.4.2",
  "updatedAt": "2021-08-31T13:49:17.928Z",
  "devdoc": {
    "kind": "dev",
    "methods": {
      "owner()": {
        "details": "Returns the address of the current owner."
      },
      "renounceOwnership()": {
        "details": "Leaves the contract without owner. It will not be possible to call `onlyOwner` functions anymore. Can only be called by the current owner. NOTE: Renouncing ownership will leave the contract without an owner, thereby removing any functionality that is only available to the owner."
      },
      "transferOwnership(address)": {
        "details": "Transfers ownership of the contract to a new account (`newOwner`). Can only be called by the current owner."
      }
    },
    "version": 1
  },
  "userdoc": {
    "kind": "user",
    "methods": {
      "createMarketItem(address,uint256,uint256)": {
        "notice": "3.   createMarketItem(address _nftContract, uint256 _tokenId, uint256 _price)   -    - listingPrice  - _price 0  . - itemId, status marketItem     -  . -   Contract   ."
      },
      "createMarketSale(uint256)": {
        "notice": "createMarketSale(uint256 _itemId) -    -  token  + token (_marketFee)   . - token    . - (token +  )     . -  NFT Contract  . - itemSoldCount "
      }
    },
    "version": 1
  }
}